{
  "_format": "hh-sol-artifact-1",
  "contractName": "EqToken",
  "sourceName": "contracts/upgradeable_contract/EqToken.sol",
  "abi": [
    {
      "inputs": [],
      "name": "AccessControlBadConfirmation",
      "type": "error"
    },
    {
      "inputs": [
        {
          "internalType": "address",
          "name": "account",
          "type": "address"
        },
        {
          "internalType": "bytes32",
          "name": "neededRole",
          "type": "bytes32"
        }
      ],
      "name": "AccessControlUnauthorizedAccount",
      "type": "error"
    },
    {
      "inputs": [
        {
          "internalType": "address",
          "name": "target",
          "type": "address"
        }
      ],
      "name": "AddressEmptyCode",
      "type": "error"
    },
    {
      "inputs": [],
      "name": "ECDSAInvalidSignature",
      "type": "error"
    },
    {
      "inputs": [
        {
          "internalType": "uint256",
          "name": "length",
          "type": "uint256"
        }
      ],
      "name": "ECDSAInvalidSignatureLength",
      "type": "error"
    },
    {
      "inputs": [
        {
          "internalType": "bytes32",
          "name": "s",
          "type": "bytes32"
        }
      ],
      "name": "ECDSAInvalidSignatureS",
      "type": "error"
    },
    {
      "inputs": [
        {
          "internalType": "address",
          "name": "sender",
          "type": "address"
        },
        {
          "internalType": "uint256",
          "name": "balance",
          "type": "uint256"
        },
        {
          "internalType": "uint256",
          "name": "needed",
          "type": "uint256"
        },
        {
          "internalType": "uint256",
          "name": "tokenId",
          "type": "uint256"
        }
      ],
      "name": "ERC1155InsufficientBalance",
      "type": "error"
    },
    {
      "inputs": [
        {
          "internalType": "address",
          "name": "approver",
          "type": "address"
        }
      ],
      "name": "ERC1155InvalidApprover",
      "type": "error"
    },
    {
      "inputs": [
        {
          "internalType": "uint256",
          "name": "idsLength",
          "type": "uint256"
        },
        {
          "internalType": "uint256",
          "name": "valuesLength",
          "type": "uint256"
        }
      ],
      "name": "ERC1155InvalidArrayLength",
      "type": "error"
    },
    {
      "inputs": [
        {
          "internalType": "address",
          "name": "operator",
          "type": "address"
        }
      ],
      "name": "ERC1155InvalidOperator",
      "type": "error"
    },
    {
      "inputs": [
        {
          "internalType": "address",
          "name": "receiver",
          "type": "address"
        }
      ],
      "name": "ERC1155InvalidReceiver",
      "type": "error"
    },
    {
      "inputs": [
        {
          "internalType": "address",
          "name": "sender",
          "type": "address"
        }
      ],
      "name": "ERC1155InvalidSender",
      "type": "error"
    },
    {
      "inputs": [
        {
          "internalType": "address",
          "name": "operator",
          "type": "address"
        },
        {
          "internalType": "address",
          "name": "owner",
          "type": "address"
        }
      ],
      "name": "ERC1155MissingApprovalForAll",
      "type": "error"
    },
    {
      "inputs": [
        {
          "internalType": "address",
          "name": "implementation",
          "type": "address"
        }
      ],
      "name": "ERC1967InvalidImplementation",
      "type": "error"
    },
    {
      "inputs": [],
      "name": "ERC1967NonPayable",
      "type": "error"
    },
    {
      "inputs": [],
      "name": "FailedCall",
      "type": "error"
    },
    {
      "inputs": [],
      "name": "InvalidInitialization",
      "type": "error"
    },
    {
      "inputs": [],
      "name": "NotInitializing",
      "type": "error"
    },
    {
      "inputs": [],
      "name": "UUPSUnauthorizedCallContext",
      "type": "error"
    },
    {
      "inputs": [
        {
          "internalType": "bytes32",
          "name": "slot",
          "type": "bytes32"
        }
      ],
      "name": "UUPSUnsupportedProxiableUUID",
      "type": "error"
    },
    {
      "anonymous": false,
      "inputs": [
        {
          "indexed": true,
          "internalType": "address",
          "name": "account",
          "type": "address"
        },
        {
          "indexed": true,
          "internalType": "address",
          "name": "operator",
          "type": "address"
        },
        {
          "indexed": false,
          "internalType": "bool",
          "name": "approved",
          "type": "bool"
        }
      ],
      "name": "ApprovalForAll",
      "type": "event"
    },
    {
      "anonymous": false,
      "inputs": [],
      "name": "EIP712DomainChanged",
      "type": "event"
    },
    {
      "anonymous": false,
      "inputs": [
        {
          "indexed": true,
          "internalType": "address",
          "name": "manager",
          "type": "address"
        },
        {
          "indexed": true,
          "internalType": "uint256",
          "name": "id",
          "type": "uint256"
        }
      ],
      "name": "IDgenerated",
      "type": "event"
    },
    {
      "anonymous": false,
      "inputs": [
        {
          "indexed": false,
          "internalType": "uint64",
          "name": "version",
          "type": "uint64"
        }
      ],
      "name": "Initialized",
      "type": "event"
    },
    {
      "anonymous": false,
      "inputs": [
        {
          "indexed": true,
          "internalType": "bytes32",
          "name": "role",
          "type": "bytes32"
        },
        {
          "indexed": true,
          "internalType": "bytes32",
          "name": "previousAdminRole",
          "type": "bytes32"
        },
        {
          "indexed": true,
          "internalType": "bytes32",
          "name": "newAdminRole",
          "type": "bytes32"
        }
      ],
      "name": "RoleAdminChanged",
      "type": "event"
    },
    {
      "anonymous": false,
      "inputs": [
        {
          "indexed": true,
          "internalType": "bytes32",
          "name": "role",
          "type": "bytes32"
        },
        {
          "indexed": true,
          "internalType": "address",
          "name": "account",
          "type": "address"
        },
        {
          "indexed": true,
          "internalType": "address",
          "name": "sender",
          "type": "address"
        }
      ],
      "name": "RoleGranted",
      "type": "event"
    },
    {
      "anonymous": false,
      "inputs": [
        {
          "indexed": true,
          "internalType": "bytes32",
          "name": "role",
          "type": "bytes32"
        },
        {
          "indexed": true,
          "internalType": "address",
          "name": "account",
          "type": "address"
        },
        {
          "indexed": true,
          "internalType": "address",
          "name": "sender",
          "type": "address"
        }
      ],
      "name": "RoleRevoked",
      "type": "event"
    },
    {
      "anonymous": false,
      "inputs": [
        {
          "indexed": true,
          "internalType": "address",
          "name": "operator",
          "type": "address"
        },
        {
          "indexed": true,
          "internalType": "address",
          "name": "from",
          "type": "address"
        },
        {
          "indexed": true,
          "internalType": "address",
          "name": "to",
          "type": "address"
        },
        {
          "indexed": false,
          "internalType": "uint256[]",
          "name": "ids",
          "type": "uint256[]"
        },
        {
          "indexed": false,
          "internalType": "uint256[]",
          "name": "values",
          "type": "uint256[]"
        }
      ],
      "name": "TransferBatch",
      "type": "event"
    },
    {
      "anonymous": false,
      "inputs": [
        {
          "indexed": true,
          "internalType": "address",
          "name": "operator",
          "type": "address"
        },
        {
          "indexed": true,
          "internalType": "address",
          "name": "from",
          "type": "address"
        },
        {
          "indexed": true,
          "internalType": "address",
          "name": "to",
          "type": "address"
        },
        {
          "indexed": false,
          "internalType": "uint256",
          "name": "id",
          "type": "uint256"
        },
        {
          "indexed": false,
          "internalType": "uint256",
          "name": "value",
          "type": "uint256"
        }
      ],
      "name": "TransferSingle",
      "type": "event"
    },
    {
      "anonymous": false,
      "inputs": [
        {
          "indexed": false,
          "internalType": "string",
          "name": "value",
          "type": "string"
        },
        {
          "indexed": true,
          "internalType": "uint256",
          "name": "id",
          "type": "uint256"
        }
      ],
      "name": "URI",
      "type": "event"
    },
    {
      "anonymous": false,
      "inputs": [
        {
          "indexed": true,
          "internalType": "address",
          "name": "implementation",
          "type": "address"
        }
      ],
      "name": "Upgraded",
      "type": "event"
    },
    {
      "inputs": [],
      "name": "CONTROLLER_ADMIN",
      "outputs": [
        {
          "internalType": "bytes32",
          "name": "",
          "type": "bytes32"
        }
      ],
      "stateMutability": "view",
      "type": "function"
    },
    {
      "inputs": [],
      "name": "CONTROLLER_ROLE",
      "outputs": [
        {
          "internalType": "bytes32",
          "name": "",
          "type": "bytes32"
        }
      ],
      "stateMutability": "view",
      "type": "function"
    },
    {
      "inputs": [],
      "name": "DEFAULT_ADMIN_ROLE",
      "outputs": [
        {
          "internalType": "bytes32",
          "name": "",
          "type": "bytes32"
        }
      ],
      "stateMutability": "view",
      "type": "function"
    },
    {
      "inputs": [],
      "name": "MINTER_ROLE",
      "outputs": [
        {
          "internalType": "bytes32",
          "name": "",
          "type": "bytes32"
        }
      ],
      "stateMutability": "view",
      "type": "function"
    },
    {
      "inputs": [],
      "name": "UPGRADE_INTERFACE_VERSION",
      "outputs": [
        {
          "internalType": "string",
          "name": "",
          "type": "string"
        }
      ],
      "stateMutability": "view",
      "type": "function"
    },
    {
      "inputs": [
        {
          "internalType": "string",
          "name": "_uri",
          "type": "string"
        },
        {
          "internalType": "address",
          "name": "minter",
          "type": "address"
        },
        {
          "internalType": "address",
          "name": "controllerAdmin",
          "type": "address"
        },
        {
          "internalType": "address",
          "name": "admin",
          "type": "address"
        },
        {
          "internalType": "string",
          "name": "name",
          "type": "string"
        },
        {
          "internalType": "string",
          "name": "version",
          "type": "string"
        }
      ],
      "name": "__EqToken_init",
      "outputs": [],
      "stateMutability": "nonpayable",
      "type": "function"
    },
    {
      "inputs": [
        {
          "internalType": "address",
          "name": "account",
          "type": "address"
        },
        {
          "internalType": "uint256",
          "name": "id",
          "type": "uint256"
        }
      ],
      "name": "balanceOf",
      "outputs": [
        {
          "internalType": "uint256",
          "name": "",
          "type": "uint256"
        }
      ],
      "stateMutability": "view",
      "type": "function"
    },
    {
      "inputs": [
        {
          "internalType": "address[]",
          "name": "accounts",
          "type": "address[]"
        },
        {
          "internalType": "uint256[]",
          "name": "ids",
          "type": "uint256[]"
        }
      ],
      "name": "balanceOfBatch",
      "outputs": [
        {
          "internalType": "uint256[]",
          "name": "",
          "type": "uint256[]"
        }
      ],
      "stateMutability": "view",
      "type": "function"
    },
    {
      "inputs": [
        {
          "internalType": "address",
          "name": "from",
          "type": "address"
        },
        {
          "internalType": "uint256",
          "name": "id",
          "type": "uint256"
        },
        {
          "internalType": "uint256",
          "name": "value",
          "type": "uint256"
        }
      ],
      "name": "controllerBurn",
      "outputs": [],
      "stateMutability": "nonpayable",
      "type": "function"
    },
    {
      "inputs": [],
      "name": "eip712Domain",
      "outputs": [
        {
          "internalType": "bytes1",
          "name": "fields",
          "type": "bytes1"
        },
        {
          "internalType": "string",
          "name": "name",
          "type": "string"
        },
        {
          "internalType": "string",
          "name": "version",
          "type": "string"
        },
        {
          "internalType": "uint256",
          "name": "chainId",
          "type": "uint256"
        },
        {
          "internalType": "address",
          "name": "verifyingContract",
          "type": "address"
        },
        {
          "internalType": "bytes32",
          "name": "salt",
          "type": "bytes32"
        },
        {
          "internalType": "uint256[]",
          "name": "extensions",
          "type": "uint256[]"
        }
      ],
      "stateMutability": "view",
      "type": "function"
    },
    {
      "inputs": [
        {
          "components": [
            {
              "internalType": "address",
              "name": "managerAddr",
              "type": "address"
            },
            {
              "internalType": "bytes32[]",
              "name": "conditionIds",
              "type": "bytes32[]"
            },
            {
              "internalType": "uint256[]",
              "name": "indexSets",
              "type": "uint256[]"
            },
            {
              "internalType": "uint256[]",
              "name": "percents",
              "type": "uint256[]"
            },
            {
              "internalType": "string",
              "name": "stakeName",
              "type": "string"
            },
            {
              "internalType": "string",
              "name": "memo",
              "type": "string"
            }
          ],
          "internalType": "struct Signature.IDM",
          "name": "message",
          "type": "tuple"
        },
        {
          "internalType": "bytes",
          "name": "signature",
          "type": "bytes"
        }
      ],
      "name": "generateID",
      "outputs": [
        {
          "internalType": "uint256",
          "name": "",
          "type": "uint256"
        }
      ],
      "stateMutability": "nonpayable",
      "type": "function"
    },
    {
      "inputs": [
        {
          "internalType": "bytes32",
          "name": "role",
          "type": "bytes32"
        }
      ],
      "name": "getRoleAdmin",
      "outputs": [
        {
          "internalType": "bytes32",
          "name": "",
          "type": "bytes32"
        }
      ],
      "stateMutability": "view",
      "type": "function"
    },
    {
      "inputs": [
        {
          "internalType": "uint256",
          "name": "id",
          "type": "uint256"
        }
      ],
      "name": "getTotalAmount",
      "outputs": [
        {
          "internalType": "uint256",
          "name": "",
          "type": "uint256"
        }
      ],
      "stateMutability": "view",
      "type": "function"
    },
    {
      "inputs": [],
      "name": "getVersion",
      "outputs": [
        {
          "internalType": "string",
          "name": "",
          "type": "string"
        }
      ],
      "stateMutability": "view",
      "type": "function"
    },
    {
      "inputs": [
        {
          "internalType": "bytes32",
          "name": "role",
          "type": "bytes32"
        },
        {
          "internalType": "address",
          "name": "newAddr",
          "type": "address"
        }
      ],
      "name": "grantRole",
      "outputs": [],
      "stateMutability": "nonpayable",
      "type": "function"
    },
    {
      "inputs": [
        {
          "internalType": "bytes32",
          "name": "role",
          "type": "bytes32"
        },
        {
          "internalType": "address",
          "name": "account",
          "type": "address"
        }
      ],
      "name": "hasRole",
      "outputs": [
        {
          "internalType": "bool",
          "name": "",
          "type": "bool"
        }
      ],
      "stateMutability": "view",
      "type": "function"
    },
    {
      "inputs": [
        {
          "internalType": "address",
          "name": "account",
          "type": "address"
        },
        {
          "internalType": "address",
          "name": "operator",
          "type": "address"
        }
      ],
      "name": "isApprovedForAll",
      "outputs": [
        {
          "internalType": "bool",
          "name": "",
          "type": "bool"
        }
      ],
      "stateMutability": "view",
      "type": "function"
    },
    {
      "inputs": [
        {
          "internalType": "address",
          "name": "to",
          "type": "address"
        },
        {
          "internalType": "uint256",
          "name": "id",
          "type": "uint256"
        },
        {
          "internalType": "uint256",
          "name": "value",
          "type": "uint256"
        },
        {
          "internalType": "bytes",
          "name": "data",
          "type": "bytes"
        }
      ],
      "name": "mint",
      "outputs": [],
      "stateMutability": "nonpayable",
      "type": "function"
    },
    {
      "inputs": [],
      "name": "proxiableUUID",
      "outputs": [
        {
          "internalType": "bytes32",
          "name": "",
          "type": "bytes32"
        }
      ],
      "stateMutability": "view",
      "type": "function"
    },
    {
      "inputs": [
        {
          "internalType": "bytes32",
          "name": "role",
          "type": "bytes32"
        },
        {
          "internalType": "address",
          "name": "callerConfirmation",
          "type": "address"
        }
      ],
      "name": "renounceRole",
      "outputs": [],
      "stateMutability": "nonpayable",
      "type": "function"
    },
    {
      "inputs": [
        {
          "internalType": "bytes32",
          "name": "role",
          "type": "bytes32"
        },
        {
          "internalType": "address",
          "name": "revokedAddr",
          "type": "address"
        }
      ],
      "name": "revokeRole",
      "outputs": [],
      "stateMutability": "nonpayable",
      "type": "function"
    },
    {
      "inputs": [
        {
          "internalType": "address",
          "name": "from",
          "type": "address"
        },
        {
          "internalType": "address",
          "name": "to",
          "type": "address"
        },
        {
          "internalType": "uint256[]",
          "name": "ids",
          "type": "uint256[]"
        },
        {
          "internalType": "uint256[]",
          "name": "values",
          "type": "uint256[]"
        },
        {
          "internalType": "bytes",
          "name": "data",
          "type": "bytes"
        }
      ],
      "name": "safeBatchTransferFrom",
      "outputs": [],
      "stateMutability": "nonpayable",
      "type": "function"
    },
    {
      "inputs": [
        {
          "internalType": "address",
          "name": "from",
          "type": "address"
        },
        {
          "internalType": "address",
          "name": "to",
          "type": "address"
        },
        {
          "internalType": "uint256",
          "name": "id",
          "type": "uint256"
        },
        {
          "internalType": "uint256",
          "name": "value",
          "type": "uint256"
        },
        {
          "internalType": "bytes",
          "name": "data",
          "type": "bytes"
        }
      ],
      "name": "safeTransferFrom",
      "outputs": [],
      "stateMutability": "nonpayable",
      "type": "function"
    },
    {
      "inputs": [
        {
          "internalType": "address",
          "name": "operator",
          "type": "address"
        },
        {
          "internalType": "bool",
          "name": "approved",
          "type": "bool"
        }
      ],
      "name": "setApprovalForAll",
      "outputs": [],
      "stateMutability": "nonpayable",
      "type": "function"
    },
    {
      "inputs": [
        {
          "internalType": "string",
          "name": "newURI",
          "type": "string"
        }
      ],
      "name": "setURI",
      "outputs": [],
      "stateMutability": "nonpayable",
      "type": "function"
    },
    {
      "inputs": [
        {
          "internalType": "bytes4",
          "name": "interfaceId",
          "type": "bytes4"
        }
      ],
      "name": "supportsInterface",
      "outputs": [
        {
          "internalType": "bool",
          "name": "",
          "type": "bool"
        }
      ],
      "stateMutability": "view",
      "type": "function"
    },
    {
      "inputs": [
        {
          "internalType": "address",
          "name": "newImplementation",
          "type": "address"
        },
        {
          "internalType": "bytes",
          "name": "data",
          "type": "bytes"
        }
      ],
      "name": "upgradeToAndCall",
      "outputs": [],
      "stateMutability": "payable",
      "type": "function"
    },
    {
      "inputs": [
        {
          "internalType": "uint256",
          "name": "",
          "type": "uint256"
        }
      ],
      "name": "uri",
      "outputs": [
        {
          "internalType": "string",
          "name": "",
          "type": "string"
        }
      ],
      "stateMutability": "view",
      "type": "function"
    }
  ],
  "bytecode": "0x60a0806040523461002a57306080526135c590816100308239608051818181610c0f01526121b30152f35b600080fdfe6080604052600436101561001257600080fd5b60003560e01c8062fdd58e146101d657806301ffc9a7146101d157806302fe5305146101cc578063092c5b3b146101c75780630d8e6e2c146101c25780630e89341c146101bd578063248a9ca3146101b857806326a81193146101b35780632eb2c2d6146101ae5780632f2ff15d146101a957806336568abe146101a45780634e1273f41461019f5780634f1ef2861461019a57806352d1902d146101955780635e09420f14610190578063731133e91461018b57806384b0196e1461018657806391d1485414610181578063a217fddf1461017c578063a22cb46514610177578063ad3cb1cc14610172578063d53913931461016d578063d547741f14610168578063e82d328b14610163578063e985e9c51461015e578063f0e4066214610159578063f242432a146101545763fa713f631461014f57600080fd5b611382565b611261565b611225565b6111e7565b6111ac565b61115d565b611122565b6110ca565b610fee565b610fd2565b610f6f565b610e9e565b610d4b565b610c67565b610bfc565b610afb565b610a3f565b6109af565b610960565b610846565b61074b565b61070f565b61062f565b610538565b6104ac565b61039f565b610236565b6101f1565b6001600160a01b038116036101ec57565b600080fd5b346101ec5760403660031901126101ec57602061021c600435610213816101db565b60243590611412565b604051908152f35b6001600160e01b03198116036101ec57565b346101ec5760203660031901126101ec57602060043561025581610224565b63ffffffff60e01b1663075885f960e11b811490811561027b575b506040519015158152f35b637965db0b60e01b811491508115610295575b5038610270565b636cdb3d1360e11b8114915081156102c7575b81156102b6575b503861028e565b6301ffc9a760e01b149050386102af565b6303a24d0760e21b811491506102a8565b634e487b7160e01b600052604160045260246000fd5b602081019081106001600160401b0382111761030957604052565b6102d8565b90601f801991011681019081106001600160401b0382111761030957604052565b6001600160401b03811161030957601f01601f191660200190565b9291926103568261032f565b91610364604051938461030e565b8294818452818301116101ec578281602093846000960137010152565b9080601f830112156101ec5781602061039c9335910161034a565b90565b346101ec576020806003193601126101ec576001600160401b03906004358281116101ec576103d2903690600401610381565b916103db612203565b825190811161030957600080516020613570833981519152916104078261040285546114a9565b611c91565b602090601f83116001146104495750819061043a939460009261043e575b50508160011b916000199060031b1c19161790565b9055005b015190503880610425565b90601f198316946104586114e3565b926000905b87821061049457505083600195961061047b575b505050811b019055005b015160001960f88460031b161c19169055388080610471565b8060018596829496860151815501950193019061045d565b346101ec5760003660031901126101ec5760206040517f7b765e0e932d348852a6f810bfa1ab891e259123f02db8cdcde614c5702233578152f35b919082519283825260005b848110610513575050826000602080949584010152601f8019910116010190565b6020818301810151848301820152016104f2565b90602061039c9281815201906104e7565b346101ec5760008060031936011261062c5760405190806000805160206134d08339815191528054610569816114a9565b808652926020926001928084169081156105fd57506001146105a6575b6105a2876105968189038261030e565b60405191829182610527565b0390f35b815293507f5e85944c6bc8f27f34ef99eb4ea2ab63aef502f5c9d3dccafc3f90de040b61975b8385106105ea57505050508101602001610596826105a23880610586565b80548686018401529382019381016105cc565b9150508695506105a29693506020925061059694915060ff191682840152151560051b82010192933880610586565b80fd5b346101ec576020806003193601126101ec576106496121a9565b6040516000916000805160206135708339815191528054610669816114a9565b808552916001918083169081156106ed5750600114610693575b6105a2856105968189038261030e565b60009081529294507ffb51a18ccbd055fbed6abc5ba3cb5f1e8684f173ecb7fb1afdcd9f589e40367f5b8284106106da57505050816105a293610596928201019338610683565b80548585018701529285019281016106bd565b60ff191686860152505050151560051b8201019150610596816105a238610683565b346101ec5760203660031901126101ec576004356000526000805160206135308339815191526020526020600160406000200154604051908152f35b346101ec576003196040368201126101ec57600435906001600160401b03908183116101ec5760c09083360301126101ec57602435908082116101ec57366023830112156101ec5781600401359081116101ec5736602482840101116101ec576105a29260246107bf9301906004016116a0565b6040519081529081906020820190565b6001600160401b0381116103095760051b60200190565b9080601f830112156101ec576020908235610800816107cf565b9361080e604051958661030e565b81855260208086019260051b8201019283116101ec57602001905b828210610837575050505090565b81358152908301908301610829565b346101ec5760a03660031901126101ec5760048035610864816101db565b602435610870816101db565b6001600160401b03906044358281116101ec5761089090369086016107e6565b906064358381116101ec576108a890369087016107e6565b926084359081116101ec576108c09036908701610381565b936001600160a01b0380821690338214158061094f575b6109225783161561090a57156108f3576108f19550612beb565b005b604051626a0d4560e21b8152600081880152602490fd5b604051632bfa23e760e11b8152600081890152602490fd5b6040805163711bec9160e11b815233818b019081526001600160a01b038616602082015290918291010390fd5b5061095a3384611b65565b156108d7565b346101ec5760403660031901126101ec576108f1602435600435610983826101db565b806000526000805160206135308339815191526020526109aa60016040600020015461232f565b6125a0565b346101ec5760403660031901126101ec576024356109cc816101db565b336001600160a01b038216036109e8576108f1906004356125da565b60405163334bd91960e11b8152600490fd5b90815180825260208080930193019160005b828110610a1a575050505090565b835185529381019392810192600101610a0c565b90602061039c9281815201906109fa565b346101ec5760403660031901126101ec576004356001600160401b038082116101ec57366023830112156101ec578160040135610a7b816107cf565b92610a89604051948561030e565b8184526020916024602086019160051b830101913683116101ec57602401905b828210610ae257856024358681116101ec576105a291610ad0610ad69236906004016107e6565b90611a5e565b60405191829182610a2e565b8380918335610af0816101db565b815201910190610aa9565b60403660031901126101ec57600435610b13816101db565b6024356001600160401b0381116101ec57610b32903690600401610381565b90610b3b6121a9565b610b43612203565b6040516352d1902d60e01b8152916020836004816001600160a01b0386165afa60009381610bcb575b50610b9257604051634c9c8ce360e01b81526001600160a01b0383166004820152602490fd5b906000805160206135108339815191528303610bb2576108f19250612dc3565b604051632a87526960e21b815260048101849052602490fd5b610bee91945060203d602011610bf5575b610be6818361030e565b810190612672565b9238610b6c565b503d610bdc565b346101ec5760003660031901126101ec577f00000000000000000000000000000000000000000000000000000000000000006001600160a01b03163003610c555760206040516000805160206135108339815191528152f35b60405163703e46dd60e11b8152600490fd5b346101ec5760603660031901126101ec57600435610c84816101db565b6024359060443590610c9461225b565b6000928084526000805160206134908339815191529182602052610cc160ff600260408820015416611af6565b6001600160a01b03811615610d3357610d1290610cfe85849160405192600184526020840152604083019160018352606084015260808301604052565b9187604051610d0c816102ee565b52612941565b8352602052600160408320018054918203918211610d2e575580f35b611b42565b604051626a0d4560e21b815260048101869052602490fd5b346101ec5760803660031901126101ec57600435610d68816101db565b60243590604435906064356001600160401b0381116101ec57610d8f903690600401610381565b92610d986122d7565b6000938185526000805160206134908339815191529283602052610dc560ff600260408920015416611af6565b6001600160a01b03811615610e255790610e0991610e0386859160405192600184526020840152604083019160018352606084015260808301604052565b91612a92565b8352602052600160408320018054918201809211610d2e575580f35b604051632bfa23e760e11b815260048101879052602490fd5b91610e7390610e6561039c97959693600f60f81b865260e0602087015260e08601906104e7565b9084820360408601526104e7565b60608301949094526001600160a01b03166080820152600060a082015280830360c0909101526109fa565b346101ec5760003660031901126101ec577fa16a46d94261c7517cc8ff89f61c0ce93598e3c849801011dee649a6a557d100541580610f46575b15610f0957610ee5611519565b610eed6115f1565b906105a2610ef9611a14565b6040519384933091469186610e3e565b60405162461bcd60e51b81526020600482015260156024820152741152540dcc4c8e88155b9a5b9a5d1a585b1a5e9959605a1b6044820152606490fd5b507fa16a46d94261c7517cc8ff89f61c0ce93598e3c849801011dee649a6a557d1015415610ed8565b346101ec5760403660031901126101ec57602060ff610fc6602435610f93816101db565b600435600052600080516020613530833981519152845260406000209060018060a01b0316600052602052604060002090565b54166040519015158152f35b346101ec5760003660031901126101ec57602060405160008152f35b346101ec5760403660031901126101ec5760043561100b816101db565b60243580151581036101ec5733156110b1576001600160a01b03821691821561109957816110566110679261103f33611470565b9060018060a01b0316600052602052604060002090565b9060ff801983541691151516179055565b604051901515815233907f17307eab39ab6107e8899845ad3d59bd9653f200f220920489ca2b5937696c3190602090a3005b60405162ced3e160e81b815260006004820152602490fd5b604051631f18c42760e11b815260006004820152602490fd5b346101ec5760003660031901126101ec5760405160408101908082106001600160401b03831117610309576105a29160405260058152640352e302e360dc1b60208201526040519182916020835260208301906104e7565b346101ec5760003660031901126101ec5760206040517f9f2df0fed2c77648de5860a4cc508cd0818c85b8b8a1ab4ceeef8d981c8956a68152f35b346101ec5760403660031901126101ec576108f1602435600435611180826101db565b806000526000805160206135308339815191526020526111a760016040600020015461232f565b6125da565b346101ec5760003660031901126101ec5760206040517f5887bf9b70a76771aad72239abff09cddfede366e9388e14097dfd2bc68588aa8152f35b346101ec5760403660031901126101ec57602061121b600435611209816101db565b60243590611216826101db565b611b65565b6040519015158152f35b346101ec5760203660031901126101ec576004356000526000805160206134908339815191526020526020600160406000200154604051908152f35b346101ec5760a03660031901126101ec5760043561127e816101db565b60243561128a816101db565b6084356001600160401b0381116101ec576112a9903690600401610381565b906001600160a01b03838116903382141580611362575b61133b57821615611322571561130a576108f1926113026064356044359160405192600184526020840152604083019160018352606084015260808301604052565b929091612beb565b604051626a0d4560e21b815260006004820152602490fd5b604051632bfa23e760e11b815260006004820152602490fd5b60405163711bec9160e11b81523360048201526001600160a01b0386166024820152604490fd5b5061136b6121a9565b60ff61137a3361103f88611470565b5416156112c0565b346101ec5760c03660031901126101ec576001600160401b036004358181116101ec576113b3903690600401610381565b6024356113bf816101db565b6044356113cb816101db565b606435906113d8826101db565b6084358581116101ec576113f0903690600401610381565b9260a4359586116101ec5761140c6108f1963690600401610381565b94611b81565b61144f9161141e6121a9565b60005260008051602061349083398151915260205260406000209060018060a01b0316600052602052604060002090565b5490565b600052600080516020613490833981519152602052604060002090565b6001600160a01b031660009081527f63c4ded609137499a459c2245d04a68e7cf4778acc09ce164c4b774f7cd59a016020526040902090565b90600182811c921680156114d9575b60208310146114c357565b634e487b7160e01b600052602260045260246000fd5b91607f16916114b8565b6000805160206135708339815191526000527ffb51a18ccbd055fbed6abc5ba3cb5f1e8684f173ecb7fb1afdcd9f589e40367f90565b604051906000826000805160206134b08339815191529182549261153c846114a9565b808452936020916001918281169081156115cb575060011461156a575b5050506115689250038361030e565b565b60009081527f42ad5d3e1f2e6e70edcf6d991b8a3023d3fca8047a131592f9edb9fd9b89d57d9590935091905b8284106115b35750611568945050508101602001388080611559565b85548885018301529485019487945092810192611597565b925050506020925061156894915060ff191682840152151560051b820101388080611559565b604051906000826000805160206134f083398151915291825492611614846114a9565b808452936020916001918281169081156115cb575060011461163f575050506115689250038361030e565b60009081527f5f9ce34815f8e11431c7bb75a8e6886a91478f7ffc1dbb0a98dc240fddd76b759590935091905b8284106116885750611568945050508101602001388080611559565b8554888501830152948501948794509281019261166c565b919082916116ac6121a9565b6116b583611975565b602090818501906116c6828761190e565b9190946040928351809787820180936116de92612881565b0396601f199788810182526116f3908261030e565b5190209683890197611705898b61190e565b90865180918a8201809461171892612881565b038a81018252611728908261030e565b5190209360608b019461173b868d61190e565b90885180918c8201809461174e92612881565b038c8101825261175e908261030e565b5190209160808d019c6117718e82611943565b369061177c9261034a565b8b81519101209060a0810161179091611943565b369061179b9261034a565b8051908c012089517f9adfcb5dfe4511ec7ca30989492772cec458f175338e2b07aea3787cb2af08c3818e019081526001600160a01b03909416602085015260408401969096526060830193909352608082019390935260a081019290925260c0820152908060e08301038981018252611815908261030e565b5190206118219061289c565b91369061182d9261034a565b6118369161292b565b61183f89611975565b6001600160a01b031661185b916001600160a01b03161461235d565b611865908861190e565b969092611872908961190e565b909661187e908a61190e565b909261188a908b611943565b9390926118968c611975565b9551998a9889019b6118a8988d6119a3565b0390810182526118b8908261030e565b51902080916118c682611453565b600201805460ff191660011790556118dd90611975565b6001600160a01b03167fdf78b6cc0e113bf1e341ff05886d53a37fe54a1fe3149f4b3291beeec9fe0288600080a390565b903590601e19813603018212156101ec57018035906001600160401b0382116101ec57602001918160051b360383136101ec57565b903590601e19813603018212156101ec57018035906001600160401b0382116101ec576020019181360383136101ec57565b3561039c816101db565b81835290916001600160fb1b0383116101ec5760209260051b809284830137010190565b9793956119d785946020986119ca60809b99959d9e9d6119e59760a08f818152019161197f565b8c81038b8e01529161197f565b9189830360408b015261197f565b928684036060880152818452848401376000838284010152601f801991011601019360018060a01b0316910152565b604051611a20816102ee565b60008152906000368137565b90611a36826107cf565b611a43604051918261030e565b8281528092611a54601f19916107cf565b0190602036910137565b919082518151808203611ad4575050611a778351611a2c565b9060009360005b8151811015611acc578060051b6020611aa281838601015182848801015190611412565b918651841015611ab85786010152600101611a7e565b634e487b7160e01b89526032600452602489fd5b509193505050565b604051635b05999160e01b815260048101919091526024810191909152604490fd5b15611afd57565b60405162461bcd60e51b815260206004820152601a60248201527f7468697320746f6b656e206973206e6f74206578697374656e740000000000006044820152606490fd5b634e487b7160e01b600052601160045260246000fd5b91908201809211610d2e57565b60ff9161103f611b7c92611b776121a9565b611470565b541690565b94929093916000805160206135508339815191529485549660ff8860401c1615976001600160401b03811680159081611c89575b6001149081611c7f575b159081611c76575b50611c645767ffffffffffffffff1916600117909655611beb9587611c3a5761206f565b611bf157565b600080516020613550833981519152805460ff60401b19169055604051600181527fc7f505b2f371ae2175ee4913f4499e1f2633a7b5936321eed1cdaeb6115181d290602090a1565b600080516020613550833981519152805460ff60401b19166801000000000000000017905561206f565b60405163f92ee8a960e01b8152600490fd5b90501538611bc7565b303b159150611bbf565b8a9150611bb5565b601f8111611c9d575050565b6000906000805160206135708339815191526000527ffb51a18ccbd055fbed6abc5ba3cb5f1e8684f173ecb7fb1afdcd9f589e40367f906020601f850160051c83019410611d06575b601f0160051c01915b828110611cfb57505050565b818155600101611cef565b9092508290611ce6565b601f8111611d1c575050565b6000906000805160206134b08339815191526000527f42ad5d3e1f2e6e70edcf6d991b8a3023d3fca8047a131592f9edb9fd9b89d57d906020601f850160051c83019410611d85575b601f0160051c01915b828110611d7a57505050565b818155600101611d6e565b9092508290611d65565b601f8111611d9b575050565b6000906000805160206134d08339815191526000527f5e85944c6bc8f27f34ef99eb4ea2ab63aef502f5c9d3dccafc3f90de040b6197906020601f850160051c83019410611e04575b601f0160051c01915b828110611df957505050565b818155600101611ded565b9092508290611de4565b601f8111611e1a575050565b6000906000805160206134f08339815191526000527f5f9ce34815f8e11431c7bb75a8e6886a91478f7ffc1dbb0a98dc240fddd76b75906020601f850160051c83019410611e83575b601f0160051c01915b828110611e7857505050565b818155600101611e6c565b9092508290611e63565b9081516001600160401b038111610309576000805160206134d083398151915290611ec181611ebc84546114a9565b611d8f565b602080601f8311600114611ef857508190611ef493949560009261043e5750508160011b916000199060031b1c19161790565b9055565b90601f19831695611f386000805160206134d08339815191526000527f5e85944c6bc8f27f34ef99eb4ea2ab63aef502f5c9d3dccafc3f90de040b619790565b926000905b888210611f7557505083600195969710611f5c575b505050811b019055565b015160001960f88460031b161c19169055388080611f52565b80600185968294968601518155019501930190611f3d565b9081516001600160401b038111610309576000805160206134f083398151915290611fc181611fbc84546114a9565b611e0e565b602080601f8311600114611ff457508190611ef493949560009261043e5750508160011b916000199060031b1c19161790565b90601f198316956120346000805160206134f08339815191526000527f5f9ce34815f8e11431c7bb75a8e6886a91478f7ffc1dbb0a98dc240fddd76b7590565b926000905b88821061205757505083600195969710611f5c57505050811b019055565b80600185968294968601518155019501930190612039565b939092919361207c612e6a565b612084612e6a565b80516001600160401b03811161030957600080516020613570833981519152916120b28261040285546114a9565b602090816001601f85111461212a57508861211e9561212498956120fb86612118976115689e9d9b9761210b9760009261043e5750508160011b916000199060031b1c19161790565b90555b612106612e6a565b612681565b6121136127f3565b6123a0565b50612455565b5061252f565b50611e8d565b9190601f1984166121396114e3565b936000905b8282106121915750509561212498956001868d9c9a9661210b966115689f966121189a61211e9d10612178575b505050811b0190556120fe565b015160001960f88460031b161c1916905538808061216b565b8060018697829497870151815501960194019061213e565b6001600160a01b037f000000000000000000000000000000000000000000000000000000000000000081163081149182156121e7575b5050610c5557565b60008051602061351083398151915254161415905038806121df565b3360009081527fb7db2dd08fcb62d0c9e08c51941cae53c267786a0b75803fb7960902fc8ef97d602052604090205460ff161561223c57565b60405163e2517d3f60e01b815233600482015260006024820152604490fd5b3360009081527f6a9e2d30c9502d2e64654936f9966c37f5208e723166202f23831d0d37f13383602052604090207f7b765e0e932d348852a6f810bfa1ab891e259123f02db8cdcde614c5702233579060ff905b5416156122b95750565b6044906040519063e2517d3f60e01b82523360048301526024820152fd5b3360009081527f549fe2656c81d2947b3b913f0a53b9ea86c71e049f3a1b8aa23c09a8a05cb8d4602052604090207f9f2df0fed2c77648de5860a4cc508cd0818c85b8b8a1ab4ceeef8d981c8956a69060ff906122af565b600081815260008051602061353083398151915260209081526040808320338452909152902060ff906122af565b1561236457565b60405162461bcd60e51b81526020600482015260146024820152731cda59db985d1d5c99481a5cc81a5b1b1959d85b60621b6044820152606490fd5b6001600160a01b03811660009081527fb7db2dd08fcb62d0c9e08c51941cae53c267786a0b75803fb7960902fc8ef97d60205260408120546000805160206135308339815191529060ff1661244f57818052602090815260408083206001600160a01b038516600090815292529020805460ff1916600117905533916001600160a01b0316907f2f8788117e7eff1d82e926ec794901d17c78024a50270940304540a733656f0d8180a4600190565b50905090565b6001600160a01b03811660009081527f549fe2656c81d2947b3b913f0a53b9ea86c71e049f3a1b8aa23c09a8a05cb8d4602052604081207f9f2df0fed2c77648de5860a4cc508cd0818c85b8b8a1ab4ceeef8d981c8956a6906000805160206135308339815191529060ff905b541661252857818352602090815260408084206001600160a01b038616600090815292529020805460ff1916600117905533926001600160a01b0316917f2f8788117e7eff1d82e926ec794901d17c78024a50270940304540a733656f0d9080a4600190565b5050905090565b6001600160a01b03811660009081527f9658f5960a96a000c804fc45e11a1c1f9783ecccfd6223e46fae0f7f22ee6d88602052604081207f5887bf9b70a76771aad72239abff09cddfede366e9388e14097dfd2bc68588aa906000805160206135308339815191529060ff906124c2565b6000818152600080516020613530833981519152602081815260408084206001600160a01b0387168552909152822091929160ff906124c2565b6000818152600080516020613530833981519152602081815260408084206001600160a01b038716855290915282205491929160ff161561252857818352602090815260408084206001600160a01b038616600090815292529020805460ff1916905533926001600160a01b0316917ff6391f5c32d9c69d2a47ea670b442974b53935d1edc7fd64eb21e047a839171b9080a4600190565b908160209103126101ec575190565b919061268b612e6a565b612693612e6a565b82516001600160401b038111610309576000805160206134b0833981519152906126c6816126c184546114a9565b611d10565b602080601f8311600114612755575090806126fc92612703969760009261043e5750508160011b916000199060031b1c19161790565b9055611f8d565b61272c60007fa16a46d94261c7517cc8ff89f61c0ce93598e3c849801011dee649a6a557d10055565b61156860007fa16a46d94261c7517cc8ff89f61c0ce93598e3c849801011dee649a6a557d10155565b90601f198316966127956000805160206134b08339815191526000527f42ad5d3e1f2e6e70edcf6d991b8a3023d3fca8047a131592f9edb9fd9b89d57d90565b926000905b8982106127db575050908392916001946127039899106127c2575b505050811b019055611f8d565b015160001960f88460031b161c191690553880806127b5565b8060018596829496860151815501950193019061279a565b7f7b765e0e932d348852a6f810bfa1ab891e259123f02db8cdcde614c570223357806000526000805160206135308339815191526020526001604060002001908154907f5887bf9b70a76771aad72239abff09cddfede366e9388e14097dfd2bc68588aa8093557fbd79b86ffe0ab8e8776151514217cd7cacd52c909f66475c3af44e129f0b00ff600080a4565b91906001600160fb1b0381116101ec5760051b809282370190565b6128a46133e0565b6128ac61344a565b916040519260208401927f8b73c3c69bb8fe3d512ecc4cf759cc79239f7b179b0ffacaa9a75d522b39400f8452604085015260608401524660808401523060a084015260a0835260c08301918383106001600160401b038411176103095760429360e291846040528151902061190160f01b855260c282015201522090565b61039c9161293891612e99565b90929192612ef5565b9291908051825190818103611ad457505060005b81518110156129f257600581901b82810160209081015191850101516001600160a01b03871661298a575b5050600101612955565b6129978761103f84611453565b548181106129bb578761103f60019594936129b3930393611453565b559038612980565b6040516303dee4c560e01b81526001600160a01b038916600482015260248101919091526044810182905260648101839052608490fd5b5090600092939160018151148414612a53576020908101519181015160408051938452918301526001600160a01b039092169133917fc3d58168c5ae7397731d063d5bbf3d657854427343f4c083240f7aacaa2d0f6291819081015b0390a4565b6040516001600160a01b039093169233927f4a39dc06d4c0dbc64b70af90fd698a233a518aa5d07e595d983b8c0526c8f7fb928291612a4e9183612f82565b908051835190818103611ad457505060005b8151811015612b0057600581901b82810160209081015191860101516001929185906001600160a01b038216612ade575b50505001612aa4565b612af69161103f612aee92611453565b918254611b58565b9055388481612ad5565b50805191939291600103612ba2576020818101518382015160408051928352928201526001600160a01b0386169160009133917fc3d58168c5ae7397731d063d5bbf3d657854427343f4c083240f7aacaa2d0f6291a45b6001600160a01b038416612b6c575b50505050565b8051600103612b935790602080612b8a959301519101519133613263565b38808080612b66565b612b9d9333613069565b612b8a565b6040516001600160a01b0385169060009033907f4a39dc06d4c0dbc64b70af90fd698a233a518aa5d07e595d983b8c0526c8f7fb9080612be3888883612f82565b0390a4612b57565b949190918151845190818103611ad457505060005b8251811015612ccd57600581901b83810160209081015191870101516001600160a01b03929186908a8516612c5d575b6001948216612c43575b50505001612c00565b612c539161103f612aee92611453565b9055388581612c3a565b9192939050612c6f8a61103f84611453565b54838110612c965791879184600196959403612c8e8d61103f85611453565b559450612c30565b6040516303dee4c560e01b81526001600160a01b038c16600482015260248101919091526044810184905260648101839052608490fd5b509491939290936001855114600014612d78576020858101518382015160408051928352928201526001600160a01b03838116929086169133917fc3d58168c5ae7397731d063d5bbf3d657854427343f4c083240f7aacaa2d0f6291a45b6001600160a01b038116612d41575b5050505050565b8451600103612d6757602080612d5d9601519201519233613298565b3880808080612d3a565b612d7394919233613164565b612d5d565b6040516001600160a01b03828116919085169033907f4a39dc06d4c0dbc64b70af90fd698a233a518aa5d07e595d983b8c0526c8f7fb9080612dbb888c83612f82565b0390a4612d2b565b90813b15612e495760008051602061351083398151915280546001600160a01b0319166001600160a01b0384169081179091557fbc7cd75a20ee27fd9adebab32041f755214dbc6bffa90cc0225b39da2e5c2d3b600080a2805115612e2e57612e2b916132cf565b50565b505034612e3757565b60405163b398979f60e01b8152600490fd5b604051634c9c8ce360e01b81526001600160a01b0383166004820152602490fd5b60ff6000805160206135508339815191525460401c1615612e8757565b604051631afcd79f60e31b8152600490fd5b8151919060418303612eca57612ec392506020820151906060604084015193015160001a906132ed565b9192909190565b505060009160029190565b60041115612edf57565b634e487b7160e01b600052602160045260246000fd5b612efe81612ed5565b80612f07575050565b612f1081612ed5565b60018103612f2a5760405163f645eedf60e01b8152600490fd5b612f3381612ed5565b60028103612f545760405163fce698f760e01b815260048101839052602490fd5b80612f60600392612ed5565b14612f685750565b6040516335e2f38360e21b81526004810191909152602490fd5b9091612f9961039c936040845260408401906109fa565b9160208184039101526109fa565b908160209103126101ec575161039c81610224565b92612feb61039c9593612ff99360018060a01b031686526000602087015260a0604087015260a08601906109fa565b9084820360608601526109fa565b9160808184039101526104e7565b939061039c9593612feb91612ff99460018060a01b03809216885216602087015260a0604087015260a08601906109fa565b3d15613064573d9061304a8261032f565b91613058604051938461030e565b82523d6000602084013e565b606090565b9293919093843b61307b575050505050565b60209161309e604051948593849363bc197c8160e01b9889865260048601612fbc565b038160006001600160a01b0388165af160009181613133575b506130f657826130c5613039565b80519190826130ef57604051632bfa23e760e11b81526001600160a01b0383166004820152602490fd5b6020915001fd5b6001600160e01b0319160361311057503880808080612d3a565b604051632bfa23e760e11b81526001600160a01b03919091166004820152602490fd5b61315691925060203d60201161315d575b61314e818361030e565b810190612fa7565b90386130b7565b503d613144565b939290949194853b613179575b505050505050565b61319c602093604051958694859463bc197c8160e01b998a875260048701613007565b038160006001600160a01b0388165af1600091816131de575b506131c357826130c5613039565b6001600160e01b031916036131105750388080808080613171565b6131f891925060203d60201161315d5761314e818361030e565b90386131b5565b909260a09261039c9594600180861b03168352600060208401526040830152606082015281608082015201906104e7565b919261039c95949160a094600180871b0380921685521660208401526040830152606082015281608082015201906104e7565b9293919093843b613275575050505050565b60209161309e604051948593849363f23a6e6160e01b98898652600486016131ff565b939290949194853b6132ac57505050505050565b61319c602093604051958694859463f23a6e6160e01b998a875260048701613230565b60008061039c93602081519101845af46132e7613039565b9161337d565b91907f7fffffffffffffffffffffffffffffff5d576e7357a4501ddfe92f46681b20a0841161337157926020929160ff608095604051948552168484015260408301526060820152600092839182805260015afa156133655780516001600160a01b0381161561335c57918190565b50809160019190565b604051903d90823e3d90fd5b50505060009160039190565b906133a4575080511561339257602081519101fd5b60405163d6bda27560e01b8152600490fd5b815115806133d7575b6133b5575090565b604051639996b31560e01b81526001600160a01b039091166004820152602490fd5b50803b156133ad565b6133e8611519565b80519081156133f8576020012090565b50507fa16a46d94261c7517cc8ff89f61c0ce93598e3c849801011dee649a6a557d1005480156134255790565b507fc5d2460186f7233c927e7db2dcc703c0e500b653ca82273b7bfad8045d85a47090565b6134526115f1565b8051908115613462576020012090565b50507fa16a46d94261c7517cc8ff89f61c0ce93598e3c849801011dee649a6a557d101548015613425579056fe63c4ded609137499a459c2245d04a68e7cf4778acc09ce164c4b774f7cd59a00a16a46d94261c7517cc8ff89f61c0ce93598e3c849801011dee649a6a557d10263c4ded609137499a459c2245d04a68e7cf4778acc09ce164c4b774f7cd59a03a16a46d94261c7517cc8ff89f61c0ce93598e3c849801011dee649a6a557d103360894a13ba1a3210667c828492db98dca3e2076cc3735a920a3ca505d382bbc02dd7bc7dec4dceedda775e58dd541e08a116c6c53815c0bd028192f7b626800f0c57e16840df040f15088dc2f81fe391c3923bec73e23a9662efc9c229c6a0063c4ded609137499a459c2245d04a68e7cf4778acc09ce164c4b774f7cd59a02a264697066735822122064f8d2416a578b9531b44f025e8587c023a5c960d28ca78fe8b0a48f9e51e75164736f6c63430008180033",
  "linkReferences": {},
  "deployedLinkReferences": {}
}