{
  "_format": "hh-sol-artifact-1",
  "contractName": "SessionKey",
  "sourceName": "contracts/upgradeable_contract/safe_module/SessionKey.sol",
  "abi": [
    {
      "inputs": [
        {
          "internalType": "address",
          "name": "target",
          "type": "address"
        }
      ],
      "name": "AddressEmptyCode",
      "type": "error"
    },
    {
      "inputs": [],
      "name": "ECDSAInvalidSignature",
      "type": "error"
    },
    {
      "inputs": [
        {
          "internalType": "uint256",
          "name": "length",
          "type": "uint256"
        }
      ],
      "name": "ECDSAInvalidSignatureLength",
      "type": "error"
    },
    {
      "inputs": [
        {
          "internalType": "bytes32",
          "name": "s",
          "type": "bytes32"
        }
      ],
      "name": "ECDSAInvalidSignatureS",
      "type": "error"
    },
    {
      "inputs": [
        {
          "internalType": "address",
          "name": "implementation",
          "type": "address"
        }
      ],
      "name": "ERC1967InvalidImplementation",
      "type": "error"
    },
    {
      "inputs": [],
      "name": "ERC1967NonPayable",
      "type": "error"
    },
    {
      "inputs": [],
      "name": "FailedCall",
      "type": "error"
    },
    {
      "inputs": [],
      "name": "InvalidInitialization",
      "type": "error"
    },
    {
      "inputs": [],
      "name": "NotInitializing",
      "type": "error"
    },
    {
      "inputs": [],
      "name": "UUPSUnauthorizedCallContext",
      "type": "error"
    },
    {
      "inputs": [
        {
          "internalType": "bytes32",
          "name": "slot",
          "type": "bytes32"
        }
      ],
      "name": "UUPSUnsupportedProxiableUUID",
      "type": "error"
    },
    {
      "anonymous": false,
      "inputs": [],
      "name": "EIP712DomainChanged",
      "type": "event"
    },
    {
      "anonymous": false,
      "inputs": [
        {
          "indexed": false,
          "internalType": "uint64",
          "name": "version",
          "type": "uint64"
        }
      ],
      "name": "Initialized",
      "type": "event"
    },
    {
      "anonymous": false,
      "inputs": [
        {
          "indexed": true,
          "internalType": "address",
          "name": "sessionKeyAddr",
          "type": "address"
        },
        {
          "indexed": false,
          "internalType": "uint256",
          "name": "validUntil",
          "type": "uint256"
        }
      ],
      "name": "SessionCreated",
      "type": "event"
    },
    {
      "anonymous": false,
      "inputs": [
        {
          "indexed": true,
          "internalType": "address",
          "name": "sessionKeyAddr",
          "type": "address"
        },
        {
          "indexed": false,
          "internalType": "address",
          "name": "targetContract",
          "type": "address"
        }
      ],
      "name": "SessionExecuted",
      "type": "event"
    },
    {
      "anonymous": false,
      "inputs": [
        {
          "indexed": true,
          "internalType": "address",
          "name": "implementation",
          "type": "address"
        }
      ],
      "name": "Upgraded",
      "type": "event"
    },
    {
      "inputs": [],
      "name": "UPGRADE_INTERFACE_VERSION",
      "outputs": [
        {
          "internalType": "string",
          "name": "",
          "type": "string"
        }
      ],
      "stateMutability": "view",
      "type": "function"
    },
    {
      "inputs": [
        {
          "internalType": "address",
          "name": "owner",
          "type": "address"
        },
        {
          "internalType": "address",
          "name": "safeAddr",
          "type": "address"
        },
        {
          "internalType": "address",
          "name": "upgradeableAdmin",
          "type": "address"
        },
        {
          "internalType": "address[]",
          "name": "targetContracts",
          "type": "address[]"
        },
        {
          "internalType": "bytes4[]",
          "name": "functionSelsctors",
          "type": "bytes4[]"
        },
        {
          "internalType": "string",
          "name": "name",
          "type": "string"
        },
        {
          "internalType": "string",
          "name": "version",
          "type": "string"
        }
      ],
      "name": "__SessionKey_init",
      "outputs": [],
      "stateMutability": "nonpayable",
      "type": "function"
    },
    {
      "inputs": [
        {
          "components": [
            {
              "internalType": "address",
              "name": "owner",
              "type": "address"
            },
            {
              "internalType": "address",
              "name": "sessionKeyAddr",
              "type": "address"
            },
            {
              "internalType": "uint256",
              "name": "validUntil",
              "type": "uint256"
            },
            {
              "internalType": "uint256",
              "name": "nonce",
              "type": "uint256"
            },
            {
              "internalType": "string",
              "name": "memo",
              "type": "string"
            }
          ],
          "internalType": "struct Signature.SessionKeyM",
          "name": "message",
          "type": "tuple"
        },
        {
          "internalType": "bytes",
          "name": "signature",
          "type": "bytes"
        }
      ],
      "name": "addSessionKey",
      "outputs": [],
      "stateMutability": "nonpayable",
      "type": "function"
    },
    {
      "inputs": [],
      "name": "eip712Domain",
      "outputs": [
        {
          "internalType": "bytes1",
          "name": "fields",
          "type": "bytes1"
        },
        {
          "internalType": "string",
          "name": "name",
          "type": "string"
        },
        {
          "internalType": "string",
          "name": "version",
          "type": "string"
        },
        {
          "internalType": "uint256",
          "name": "chainId",
          "type": "uint256"
        },
        {
          "internalType": "address",
          "name": "verifyingContract",
          "type": "address"
        },
        {
          "internalType": "bytes32",
          "name": "salt",
          "type": "bytes32"
        },
        {
          "internalType": "uint256[]",
          "name": "extensions",
          "type": "uint256[]"
        }
      ],
      "stateMutability": "view",
      "type": "function"
    },
    {
      "inputs": [
        {
          "components": [
            {
              "internalType": "address",
              "name": "sessionKeyAddr",
              "type": "address"
            },
            {
              "internalType": "address[]",
              "name": "to",
              "type": "address[]"
            },
            {
              "internalType": "bytes[]",
              "name": "data",
              "type": "bytes[]"
            },
            {
              "internalType": "uint256",
              "name": "nonce",
              "type": "uint256"
            }
          ],
          "internalType": "struct Signature.ExecuteM",
          "name": "message",
          "type": "tuple"
        },
        {
          "internalType": "bytes",
          "name": "signature",
          "type": "bytes"
        }
      ],
      "name": "execute",
      "outputs": [],
      "stateMutability": "nonpayable",
      "type": "function"
    },
    {
      "inputs": [
        {
          "internalType": "address",
          "name": "addr",
          "type": "address"
        }
      ],
      "name": "getNonce",
      "outputs": [
        {
          "internalType": "uint256",
          "name": "",
          "type": "uint256"
        }
      ],
      "stateMutability": "view",
      "type": "function"
    },
    {
      "inputs": [],
      "name": "proxiableUUID",
      "outputs": [
        {
          "internalType": "bytes32",
          "name": "",
          "type": "bytes32"
        }
      ],
      "stateMutability": "view",
      "type": "function"
    },
    {
      "inputs": [
        {
          "internalType": "address",
          "name": "newImplementation",
          "type": "address"
        },
        {
          "internalType": "bytes",
          "name": "data",
          "type": "bytes"
        }
      ],
      "name": "upgradeToAndCall",
      "outputs": [],
      "stateMutability": "payable",
      "type": "function"
    }
  ],
  "bytecode": "0x60a0806040523461002a5730608052611ba390816100308239608051818181610b610152610c1a0152f35b600080fdfe6080604052600436101561001257600080fd5b60003560e01c80630c6fd96014610e445780632d0335ab14610e1d5780634f1ef28614610bcb57806352d1902d14610b4e5780635e2b6efb146104b357806384b0196e14610357578063ad3cb1cc146102fb5763ba3a3e451461007457600080fd5b346102f6576003196040368201126102f657600435906001600160401b038083116102f65760a0836004019284360301126102f6576024358181116102f6576100c19036906004016113c9565b7ffaa239a234821e3285f47f14d264271135263997a66a3e8e25f93d07d43a5d0254919490936001600160a01b03939092841633036102f65761010383611528565b602483019561011187611528565b60448501359861013361012c608460648901359801896115ba565b3691611463565b6020815191012088604051938160208601977f53dbe2a42f6d2692bf393154e5ded26384b323029dfad770b24f9a1064d2dbcc89521660408601521660608401528a60808401528660a084015260c083015260c0825260e0820194828610908611176102e0576101b36101c1946101bb936101ca9760405251902061161e565b923691611463565b9061183b565b90929192611877565b83806101d585611528565b1691161490816102ca575b501561028e576101f26101f791611528565b61153c565b9081549160018301809311610278577fbb0fc5e96176e5f20f7e8333844ede297a6b31fd8e5d7cb8e63ae181b6d6a8049360209361026d92558261023a82611528565b166000527ffaa239a234821e3285f47f14d264271135263997a66a3e8e25f93d07d43a5d00845285604060002055611528565b1692604051908152a2005b634e487b7160e01b600052601160045260246000fd5b60405162461bcd60e51b81526020600482015260146024820152731cda59db985d1d5c99481a5cc81a5b1b1959d85b60621b6044820152606490fd5b90506102d86101f283611528565b5414386101e0565b634e487b7160e01b600052604160045260246000fd5b600080fd5b346102f65760003660031901126102f65760405160408101908082106001600160401b038311176102e0576103539160405260058152640352e302e360dc1b60208201526040519182916020835260208301906114e8565b0390f35b346102f65760003660031901126102f6577fa16a46d94261c7517cc8ff89f61c0ce93598e3c849801011dee649a6a557d10054158061048a575b1561044d5761039e6116d8565b6103a661179e565b6040516020808201928284106001600160401b038511176102e05791602061040085946103f2979660405260008452604051978897600f60f81b895260e0858a015260e08901906114e8565b9087820360408901526114e8565b91466060870152306080870152600060a087015285830360c0870152519182815201929160005b82811061043657505050500390f35b835185528695509381019392810192600101610427565b60405162461bcd60e51b81526020600482015260156024820152741152540dcc4c8e88155b9a5b9a5d1a585b1a5e9959605a1b6044820152606490fd5b507fa16a46d94261c7517cc8ff89f61c0ce93598e3c849801011dee649a6a557d1015415610391565b346102f65760e03660031901126102f6576104cc6113f6565b6024356001600160a01b03811681036102f657604435916001600160a01b03831683036102f6576064356001600160401b0381116102f65761051290369060040161149a565b90936084356001600160401b0381116102f65761053390369060040161149a565b91909360a4356001600160401b0381116102f6576105559036906004016114ca565b9560c4356001600160401b0381116102f6576105759036906004016114ca565b600080516020611b2e83398151915254976001600160401b0389161580610b40575b60016001600160401b038b16149081610b36575b159081610b2d575b50610b1b5760016001600160401b03198a1617600080516020611b2e8339815191525560ff8960401c1615610aee575b6105eb6118fc565b6105f36118fc565b8051906001600160401b0382116102e057819061061e600080516020611ace8339815191525461169e565b601f8111610a6d575b50602090601f83116001146109db576000926109d0575b50508160011b916000199060031b1c191617600080516020611ace833981519152555b8051906001600160401b0382116102e057819061068c600080516020611aee8339815191525461169e565b601f811161094f575b50602090601f83116001146108bd576000926108b2575b50508160011b916000199060031b1c191617600080516020611aee833981519152555b60007fa16a46d94261c7517cc8ff89f61c0ce93598e3c849801011dee649a6a557d1005560007fa16a46d94261c7517cc8ff89f61c0ce93598e3c849801011dee649a6a557d101556bffffffffffffffffffffffff60a01b917ffaa239a234821e3285f47f14d264271135263997a66a3e8e25f93d07d43a5d029060018060a01b0316838254161790557ffaa239a234821e3285f47f14d264271135263997a66a3e8e25f93d07d43a5d039060018060a01b0316828254161790557ffaa239a234821e3285f47f14d264271135263997a66a3e8e25f93d07d43a5d019160018060a01b03169082541617905560005b82811061082c5760ff8560401c16156107d357005b68ff000000000000000019600080516020611b2e8339815191525416600080516020611b2e833981519152557fc7f505b2f371ae2175ee4913f4499e1f2633a7b5936321eed1cdaeb6115181d2602060405160018152a1005b6108378183866115aa565b35906001600160e01b0319821682036102f65760019161089c61086361085e84888c6115aa565b611528565b6001600160a01b031660009081527ffaa239a234821e3285f47f14d264271135263997a66a3e8e25f93d07d43a5d046020526040902090565b9060e01c63ffffffff19825416179055016107be565b015190508a806106ac565b9250600080516020611aee833981519152600052600080516020611b4e833981519152906000935b601f1984168510610934576001945083601f1981161061091b575b505050811b01600080516020611aee833981519152556106cf565b015160001960f88460031b161c191690558a8080610900565b818101518355602094850194600190930192909101906108e5565b909150600080516020611aee833981519152600052601f830160051c600080516020611b4e83398151915201602084106109bb575b908392915b601f820160051c600080516020611b4e8339815191520181106109ac5750610695565b60008155849350600101610989565b50600080516020611b4e833981519152610984565b015190508b8061063e565b9250600080516020611ace833981519152600052600080516020611b0e833981519152906000935b601f1984168510610a52576001945083601f19811610610a39575b505050811b01600080516020611ace83398151915255610661565b015160001960f88460031b161c191690558b8080610a1e565b81810151835560209485019460019093019290910190610a03565b909150600080516020611ace833981519152600052601f830160051c600080516020611b0e8339815191520160208410610ad9575b908392915b601f820160051c600080516020611b0e833981519152018110610aca5750610627565b60008155849350600101610aa7565b50600080516020611b0e833981519152610aa2565b68ffffffffffffffffff1989166801000000000000000117600080516020611b2e833981519152556105e3565b60405163f92ee8a960e01b8152600490fd5b9050158b6105b3565b303b1591506105ab565b5060ff8960401c1615610597565b346102f65760003660031901126102f6577f00000000000000000000000000000000000000000000000000000000000000006001600160a01b03163003610bb95760206040517f360894a13ba1a3210667c828492db98dca3e2076cc3735a920a3ca505d382bbc8152f35b60405163703e46dd60e11b8152600490fd5b60403660031901126102f657610bdf6113f6565b6024356001600160401b0381116102f657366023820112156102f657610c0f903690602481600401359101611463565b906001600160a01b037f00000000000000000000000000000000000000000000000000000000000000008116308114908115610def575b50610bb957807ffaa239a234821e3285f47f14d264271135263997a66a3e8e25f93d07d43a5d01541633036102f6576040516352d1902d60e01b8152908216916020918281600481875afa60009181610dc0575b50610cb857604051634c9c8ce360e01b815260048101859052602490fd5b9284937f360894a13ba1a3210667c828492db98dca3e2076cc3735a920a3ca505d382bbc90818103610da85750823b15610d8f5780546001600160a01b03191682179055604051907fbc7cd75a20ee27fd9adebab32041f755214dbc6bffa90cc0225b39da2e5c2d3b600080a2835115610d7557506000808484610d6a96519101845af4903d15610d6c573d610d4d81611448565b90610d5b6040519283611427565b8152600081943d92013e611a6a565b005b60609250611a6a565b9250505034610d8057005b63b398979f60e01b8152600490fd5b604051634c9c8ce360e01b815260048101839052602490fd5b60249060405190632a87526960e21b82526004820152fd5b9091508381813d8311610de8575b610dd88183611427565b810103126102f657519086610c9a565b503d610dce565b9050817f360894a13ba1a3210667c828492db98dca3e2076cc3735a920a3ca505d382bbc5416141584610c46565b346102f65760203660031901126102f6576020610e3b6101f26113f6565b54604051908152f35b346102f6576003196040368201126102f6576001600160401b039081600435116102f657608090600435360301126102f6576024359081116102f657610e8e9036906004016113c9565b90610ea3604460043501600435600401611575565b929050610ec8610eb284611607565b93610ec06040519586611427565b808552611607565b601f190136602085013760005b610ee9604460043501600435600401611575565b9050811015610f4d57610f1361012c82610f0d604460043501600435600401611575565b906115ec565b60208151910120908451811015610f375760019160208260051b8701015201610ed5565b634e487b7160e01b600052603260045260246000fd5b5090610f5d600435600401611528565b610f71602460043501600435600401611575565b604051908160208101938490926000905b808210611399575050610f9e925003601f198101835282611427565b519020604051602081019081602088519198019060005b81811061138357505050926101c19594926101b39285610fe46101bb9761104e9b03601f198101835282611427565b51902090604051927f9650eb21fe7965aff3554610fdba4e5f51d42089724cac43a56815aa278b6851602085015260018060a01b03166040840152606083015260808201526064600435013560a082015260a081526110428161140c565b6020815191012061161e565b6001600160a01b036110636004803501611528565b6001600160a01b038316911681149081611369575b81611331575b50156112ec5761108d9061153c565b805460018101811161027857600101905560005b6110b5604460043501600435600401611575565b9050811015610d6a576110e261086361085e836110dc602460043501600435600401611575565b906115aa565b5460e01b6110fe82610f0d604460043501600435600401611575565b6001600160e01b031991829182913582811691600481106112d6575b505090501691160361129e577ffaa239a234821e3285f47f14d264271135263997a66a3e8e25f93d07d43a5d03546001600160a01b0316602061116c61085e846110dc60048035602481019101611575565b9161118584610f0d604460043501600435600401611575565b60405163468721a760e01b81526001600160a01b0390951660048601526000602486018190526080604487015260848601829052859392849260a49184919081908484013783838284010152836064830152601f801991011681010301925af180156112925761125a575b50600190611202600435600401611528565b7fb2ba92a644b712e86bd7d175d568fa45d8a88dd79fd84018064b81d29e6bf34b602061124061085e856110dc602460043501600435600401611575565b60405160a087901b8790039182168152931692a2016110a1565b6020813d60201161128a575b8161127360209383611427565b810103126102f65751801515036102f657816111f0565b3d9150611266565b6040513d6000823e3d90fd5b60405162461bcd60e51b815260206004820152601060248201526f34b73b30b634b210333ab731ba34b7b760811b6044820152606490fd5b8391925060040360031b1b16168190868061111a565b60405162461bcd60e51b815260206004820152601d60248201527f457865637574654d207369676e617475726520697320696c6c6567616c0000006044820152606490fd5b90506000527ffaa239a234821e3285f47f14d264271135263997a66a3e8e25f93d07d43a5d006020526040600020544211158261107e565b90506113748261153c565b54606460043501351490611078565b82518a526020998a019990920191600101610fb5565b9092509083356001600160a01b03811691908290036102f657602081600193829352019401920184929391610f82565b9181601f840112156102f6578235916001600160401b0383116102f657602083818601950101116102f657565b600435906001600160a01b03821682036102f657565b60c081019081106001600160401b038211176102e057604052565b90601f801991011681019081106001600160401b038211176102e057604052565b6001600160401b0381116102e057601f01601f191660200190565b92919261146f82611448565b9161147d6040519384611427565b8294818452818301116102f6578281602093846000960137010152565b9181601f840112156102f6578235916001600160401b0383116102f6576020808501948460051b0101116102f657565b9080601f830112156102f6578160206114e593359101611463565b90565b919082519283825260005b848110611514575050826000602080949584010152601f8019910116010190565b6020818301810151848301820152016114f3565b356001600160a01b03811681036102f65790565b6001600160a01b031660009081527ffaa239a234821e3285f47f14d264271135263997a66a3e8e25f93d07d43a5d056020526040902090565b903590601e19813603018212156102f657018035906001600160401b0382116102f657602001918160051b360383136102f657565b9190811015610f375760051b0190565b903590601e19813603018212156102f657018035906001600160401b0382116102f6576020019181360383136102f657565b90821015610f37576116039160051b8101906115ba565b9091565b6001600160401b0381116102e05760051b60200190565b6042906116296119bb565b611631611a25565b6040519060208201927f8b73c3c69bb8fe3d512ecc4cf759cc79239f7b179b0ffacaa9a75d522b39400f8452604083015260608201524660808201523060a082015260a081526116808161140c565b519020906040519161190160f01b8352600283015260228201522090565b90600182811c921680156116ce575b60208310146116b857565b634e487b7160e01b600052602260045260246000fd5b91607f16916116ad565b60405190600082600080516020611ace833981519152918254926116fb8461169e565b808452936020916001918281169081156117785750600114611729575b50505061172792500383611427565b565b6000908152600080516020611b0e8339815191529590935091905b8284106117605750611727945050508101602001388080611718565b85548885018301529485019487945092810192611744565b925050506020925061172794915060ff191682840152151560051b820101388080611718565b60405190600082600080516020611aee833981519152918254926117c18461169e565b8084529360209160019182811690811561177857506001146117ec5750505061172792500383611427565b6000908152600080516020611b4e8339815191529590935091905b8284106118235750611727945050508101602001388080611718565b85548885018301529485019487945092810192611807565b815191906041830361186c5761186592506020820151906060604084015193015160001a9061192b565b9192909190565b505060009160029190565b60048110156118e65780611889575050565b600181036118a35760405163f645eedf60e01b8152600490fd5b600281036118c45760405163fce698f760e01b815260048101839052602490fd5b6003146118ce5750565b602490604051906335e2f38360e21b82526004820152fd5b634e487b7160e01b600052602160045260246000fd5b60ff600080516020611b2e8339815191525460401c161561191957565b604051631afcd79f60e31b8152600490fd5b91907f7fffffffffffffffffffffffffffffff5d576e7357a4501ddfe92f46681b20a084116119af57926020929160ff608095604051948552168484015260408301526060820152600092839182805260015afa156119a35780516001600160a01b0381161561199a57918190565b50809160019190565b604051903d90823e3d90fd5b50505060009160039190565b6119c36116d8565b80519081156119d3576020012090565b50507fa16a46d94261c7517cc8ff89f61c0ce93598e3c849801011dee649a6a557d100548015611a005790565b507fc5d2460186f7233c927e7db2dcc703c0e500b653ca82273b7bfad8045d85a47090565b611a2d61179e565b8051908115611a3d576020012090565b50507fa16a46d94261c7517cc8ff89f61c0ce93598e3c849801011dee649a6a557d101548015611a005790565b90611a915750805115611a7f57602081519101fd5b60405163d6bda27560e01b8152600490fd5b81511580611ac4575b611aa2575090565b604051639996b31560e01b81526001600160a01b039091166004820152602490fd5b50803b15611a9a56fea16a46d94261c7517cc8ff89f61c0ce93598e3c849801011dee649a6a557d102a16a46d94261c7517cc8ff89f61c0ce93598e3c849801011dee649a6a557d10342ad5d3e1f2e6e70edcf6d991b8a3023d3fca8047a131592f9edb9fd9b89d57df0c57e16840df040f15088dc2f81fe391c3923bec73e23a9662efc9c229c6a005f9ce34815f8e11431c7bb75a8e6886a91478f7ffc1dbb0a98dc240fddd76b75a2646970667358221220e982ce47b93345baa5f21534b92b41bffdaf6376acb41ff2699b5673a267bc5964736f6c63430008180033",
  "linkReferences": {},
  "deployedLinkReferences": {}
}