{
  "_format": "hh-sol-artifact-1",
  "contractName": "SessionKeyProxyFactory",
  "sourceName": "contracts/factory/SessionKeyProxyFactory.sol",
  "abi": [
    {
      "anonymous": false,
      "inputs": [
        {
          "indexed": true,
          "internalType": "address",
          "name": "proxy",
          "type": "address"
        },
        {
          "indexed": true,
          "internalType": "address",
          "name": "deployer",
          "type": "address"
        },
        {
          "indexed": true,
          "internalType": "address",
          "name": "safeAddr",
          "type": "address"
        },
        {
          "indexed": false,
          "internalType": "address",
          "name": "implementation",
          "type": "address"
        }
      ],
      "name": "ProxyCreated",
      "type": "event"
    },
    {
      "inputs": [
        {
          "internalType": "address",
          "name": "implementation",
          "type": "address"
        },
        {
          "internalType": "address",
          "name": "owner",
          "type": "address"
        },
        {
          "internalType": "address",
          "name": "safeAddr",
          "type": "address"
        },
        {
          "internalType": "address",
          "name": "upgradeableAdmin",
          "type": "address"
        },
        {
          "internalType": "address[]",
          "name": "targetContracts",
          "type": "address[]"
        },
        {
          "internalType": "bytes4[]",
          "name": "functionSelsctors",
          "type": "bytes4[]"
        },
        {
          "internalType": "string",
          "name": "name",
          "type": "string"
        },
        {
          "internalType": "string",
          "name": "version",
          "type": "string"
        }
      ],
      "name": "deploy",
      "outputs": [
        {
          "internalType": "address",
          "name": "proxy",
          "type": "address"
        }
      ],
      "stateMutability": "nonpayable",
      "type": "function"
    }
  ],
  "bytecode": "0x60808060405234610016576106f9908161001c8239f35b600080fdfe6080604052600436101561001257600080fd5b60003560e01c631ef812e61461002757600080fd5b346102c2576101003660031901126102c2576004356001600160a01b03811681036102c2576024356001600160a01b03811681036102c257604435906001600160a01b03821682036102c257606435906001600160a01b03821682036102c25760843567ffffffffffffffff81116102c2576100a7903690600401610306565b60a43567ffffffffffffffff81116102c2576100c7903690600401610306565b909260c43567ffffffffffffffff81116102c2576100e9903690600401610359565b9260e43567ffffffffffffffff81116102c2576101129097959493929196973690600401610359565b604051635e2b6efb60e01b60208201526001600160a01b039889166024820152898916604482015297909516606488015260e060848801526101048701869052939486946101248601916000905b8082106102c7575050508481036023190160a486015281815260200192906000905b80821061028857505050926101a96101bb926101c9956023198683030160c48701526103b0565b8381036023190160e4850152906103b0565b03601f198101835282610337565b604051906102d3908183019083821067ffffffffffffffff83111761027257604061020f9285946103f186396001600160a01b03881681526020810182905201906103b0565b03906000f0918215610266576040516001600160a01b03918216815260209382169290911690339083907f0a7328f330951e6a3da10df3de9d5c2572f9e33f8b2e916ac46bace2428ed7c4908690a4604051908152f35b6040513d6000823e3d90fd5b634e487b7160e01b600052604160045260246000fd5b91945091928435906001600160e01b0319821682036102c2576020809160019363ffffffff60e01b16815201950192018694939291610182565b600080fd5b95965093949293909290918335906001600160a01b03821682036102c25760208091600193848060a01b03168152019401920188969594939291610160565b9181601f840112156102c25782359167ffffffffffffffff83116102c2576020808501948460051b0101116102c257565b90601f8019910116810190811067ffffffffffffffff82111761027257604052565b81601f820112156102c25780359067ffffffffffffffff8211610272576040519261038e601f8401601f191660200185610337565b828452602083830101116102c257816000926020809301838601378301015290565b919082519283825260005b8481106103dc575050826000602080949584010152601f8019910116010190565b6020818301810151848301820152016103bb56fe60806040526102d38038038061001481610194565b92833981019060408183031261018f5780516001600160a01b03811680820361018f5760208381015190936001600160401b03821161018f570184601f8201121561018f5780519061006d610068836101cf565b610194565b9582875285838301011161018f57849060005b83811061017b57505060009186010152813b15610163577f360894a13ba1a3210667c828492db98dca3e2076cc3735a920a3ca505d382bbc80546001600160a01b03191682179055604051907fbc7cd75a20ee27fd9adebab32041f755214dbc6bffa90cc0225b39da2e5c2d3b600080a28351156101455750600080848461012c96519101845af4903d1561013c573d61011c610068826101cf565b908152600081943d92013e6101ea565b505b6040516085908161024e8239f35b606092506101ea565b9250505034610154575061012e565b63b398979f60e01b8152600490fd5b60249060405190634c9c8ce360e01b82526004820152fd5b818101830151888201840152869201610080565b600080fd5b6040519190601f01601f191682016001600160401b038111838210176101b957604052565b634e487b7160e01b600052604160045260246000fd5b6001600160401b0381116101b957601f01601f191660200190565b9061021157508051156101ff57602081519101fd5b60405163d6bda27560e01b8152600490fd5b81511580610244575b610222575090565b604051639996b31560e01b81526001600160a01b039091166004820152602490fd5b50803b1561021a56fe60806040527f360894a13ba1a3210667c828492db98dca3e2076cc3735a920a3ca505d382bbc54600090819081906001600160a01b0316368280378136915af43d82803e15604b573d90f35b3d90fdfea2646970667358221220d5689bb9bdf453c58b2985b84bdedcbe8410e4ee1473f34ac7359ac72b7aa41d64736f6c63430008180033a26469706673582212208a91b28b5a8fa5b284beedf46b8d163436ca2252aa9a485ed32d021fc507b0fb64736f6c63430008180033",
  "linkReferences": {},
  "deployedLinkReferences": {}
}