{
  "_format": "hh-sol-artifact-1",
  "contractName": "VaultControllerProxyFactory",
  "sourceName": "contracts/factory/VaultControllerProxyFactory.sol",
  "abi": [
    {
      "anonymous": false,
      "inputs": [
        {
          "indexed": true,
          "internalType": "address",
          "name": "proxy",
          "type": "address"
        },
        {
          "indexed": true,
          "internalType": "address",
          "name": "deployer",
          "type": "address"
        },
        {
          "indexed": true,
          "internalType": "address",
          "name": "safeAddr",
          "type": "address"
        },
        {
          "indexed": false,
          "internalType": "address",
          "name": "implementation",
          "type": "address"
        }
      ],
      "name": "ProxyCreated",
      "type": "event"
    },
    {
      "inputs": [
        {
          "internalType": "address",
          "name": "implementation",
          "type": "address"
        },
        {
          "components": [
            {
              "internalType": "address",
              "name": "managerAddr",
              "type": "address"
            },
            {
              "internalType": "bytes32[]",
              "name": "conditionIds",
              "type": "bytes32[]"
            },
            {
              "internalType": "uint256[]",
              "name": "indexSets",
              "type": "uint256[]"
            },
            {
              "internalType": "uint256[]",
              "name": "percents",
              "type": "uint256[]"
            },
            {
              "internalType": "string",
              "name": "stakeName",
              "type": "string"
            },
            {
              "internalType": "string",
              "name": "memo",
              "type": "string"
            }
          ],
          "internalType": "struct Signature.IDM",
          "name": "message",
          "type": "tuple"
        },
        {
          "internalType": "bytes",
          "name": "signature",
          "type": "bytes"
        },
        {
          "internalType": "address",
          "name": "safeAddr",
          "type": "address"
        },
        {
          "internalType": "address",
          "name": "platform",
          "type": "address"
        },
        {
          "internalType": "address",
          "name": "admin",
          "type": "address"
        },
        {
          "internalType": "address",
          "name": "eqToken",
          "type": "address"
        },
        {
          "internalType": "address",
          "name": "stakeBook",
          "type": "address"
        },
        {
          "internalType": "uint256",
          "name": "managerRating",
          "type": "uint256"
        },
        {
          "internalType": "uint256",
          "name": "longFeeRating",
          "type": "uint256"
        },
        {
          "internalType": "uint256",
          "name": "shortFeeRating",
          "type": "uint256"
        },
        {
          "internalType": "string",
          "name": "name",
          "type": "string"
        },
        {
          "internalType": "string",
          "name": "version",
          "type": "string"
        }
      ],
      "name": "deploy",
      "outputs": [
        {
          "internalType": "address",
          "name": "proxy",
          "type": "address"
        }
      ],
      "stateMutability": "nonpayable",
      "type": "function"
    }
  ],
  "bytecode": "0x608080604052346100165761086d908161001c8239f35b600080fdfe604060808152600436101561001357600080fd5b600090813560e01c63d0ff10611461002a57600080fd5b346103e057600319906101a0368301126103dc576004356001600160a01b03811692908390036103d85767ffffffffffffffff602435116103d85760c090602435360301126103dc5767ffffffffffffffff604435116103dc573660236044350112156103dc5767ffffffffffffffff60443560040135116103dc57366024604435600401356044350101116103dc57606435916001600160a01b03831683036103d8576084356001600160a01b03811681036103d45760a4356001600160a01b03811681036103d05760c4356001600160a01b03811681036103cc5760e435916001600160a01b03831683036103c8576101643567ffffffffffffffff81116103c45761013c90369060040161041c565b936101843567ffffffffffffffff81116103c05761015e90369060040161041c565b90875195630a9d2dd760e01b60208801526101806024880152602435600401359060018060a01b0382168092036103bc57610314968896610306966102f3958e956101a48b01526102976102798b6102446101d86101c56024803501602435600401610478565b60c06101c48601526102648501916104ad565b61025561023061020b6101f5604460243501602435600401610478565b6101a31988870381016101e48a015295916104ad565b61021f606460243501602435600401610478565b9085888403016102048901526104ad565b6102446084602435016024356004016104d1565b908487840301610224880152610503565b9261026a60a4602435016024356004016104d1565b93909282860301910152610503565b6023198c82030160448d015260443560040135602460443501610503565b6001600160a01b0396871660648c015290861660848b015290851660a48a015290841660c4890152921660e487015261010480359087015261012480359087015261014480359087015285820360231901610164870152610524565b8381036023190161018485015290610524565b03601f1981018352826103e4565b8251906102d38083019083821067ffffffffffffffff8311176103a857918561034e92859461056586398681528160208201520190610524565b039085f0801561039e578251918252602094506001600160a01b03908116931690339084907f0a7328f330951e6a3da10df3de9d5c2572f9e33f8b2e916ac46bace2428ed7c4908790a451908152f35b82513d86823e3d90fd5b634e487b7160e01b88526041600452602488fd5b8b80fd5b8980fd5b8880fd5b8780fd5b8680fd5b8580fd5b8480fd5b8380fd5b8280fd5b5080fd5b90601f8019910116810190811067ffffffffffffffff82111761040657604052565b634e487b7160e01b600052604160045260246000fd5b81601f820112156104735780359067ffffffffffffffff82116104065760405192610451601f8401601f1916602001856103e4565b8284526020838301011161047357816000926020809301838601378301015290565b600080fd5b9035601e198236030181121561047357016020813591019167ffffffffffffffff8211610473578160051b3603831361047357565b81835290916001600160fb1b0383116104735760209260051b809284830137010190565b9035601e198236030181121561047357016020813591019167ffffffffffffffff821161047357813603831361047357565b908060209392818452848401376000828201840152601f01601f1916010190565b919082519283825260005b848110610550575050826000602080949584010152601f8019910116010190565b60208183018101518483018201520161052f56fe60806040526102d38038038061001481610194565b92833981019060408183031261018f5780516001600160a01b03811680820361018f5760208381015190936001600160401b03821161018f570184601f8201121561018f5780519061006d610068836101cf565b610194565b9582875285838301011161018f57849060005b83811061017b57505060009186010152813b15610163577f360894a13ba1a3210667c828492db98dca3e2076cc3735a920a3ca505d382bbc80546001600160a01b03191682179055604051907fbc7cd75a20ee27fd9adebab32041f755214dbc6bffa90cc0225b39da2e5c2d3b600080a28351156101455750600080848461012c96519101845af4903d1561013c573d61011c610068826101cf565b908152600081943d92013e6101ea565b505b6040516085908161024e8239f35b606092506101ea565b9250505034610154575061012e565b63b398979f60e01b8152600490fd5b60249060405190634c9c8ce360e01b82526004820152fd5b818101830151888201840152869201610080565b600080fd5b6040519190601f01601f191682016001600160401b038111838210176101b957604052565b634e487b7160e01b600052604160045260246000fd5b6001600160401b0381116101b957601f01601f191660200190565b9061021157508051156101ff57602081519101fd5b60405163d6bda27560e01b8152600490fd5b81511580610244575b610222575090565b604051639996b31560e01b81526001600160a01b039091166004820152602490fd5b50803b1561021a56fe60806040527f360894a13ba1a3210667c828492db98dca3e2076cc3735a920a3ca505d382bbc54600090819081906001600160a01b0316368280378136915af43d82803e15604b573d90f35b3d90fdfea2646970667358221220d5689bb9bdf453c58b2985b84bdedcbe8410e4ee1473f34ac7359ac72b7aa41d64736f6c63430008180033a264697066735822122093cfe5a9ef119108e01f0142268555ab57f7972b13a1a0661772fe6dcfd6ed3064736f6c63430008180033",
  "linkReferences": {},
  "deployedLinkReferences": {}
}