{
  "_format": "hh-sol-artifact-1",
  "contractName": "VaultController",
  "sourceName": "contracts/upgradeable_contract/safe_module/VaultController.sol",
  "abi": [
    {
      "inputs": [
        {
          "internalType": "address",
          "name": "target",
          "type": "address"
        }
      ],
      "name": "AddressEmptyCode",
      "type": "error"
    },
    {
      "inputs": [],
      "name": "ECDSAInvalidSignature",
      "type": "error"
    },
    {
      "inputs": [
        {
          "internalType": "uint256",
          "name": "length",
          "type": "uint256"
        }
      ],
      "name": "ECDSAInvalidSignatureLength",
      "type": "error"
    },
    {
      "inputs": [
        {
          "internalType": "bytes32",
          "name": "s",
          "type": "bytes32"
        }
      ],
      "name": "ECDSAInvalidSignatureS",
      "type": "error"
    },
    {
      "inputs": [
        {
          "internalType": "address",
          "name": "implementation",
          "type": "address"
        }
      ],
      "name": "ERC1967InvalidImplementation",
      "type": "error"
    },
    {
      "inputs": [],
      "name": "ERC1967NonPayable",
      "type": "error"
    },
    {
      "inputs": [],
      "name": "FailedCall",
      "type": "error"
    },
    {
      "inputs": [],
      "name": "InvalidInitialization",
      "type": "error"
    },
    {
      "inputs": [],
      "name": "NotInitializing",
      "type": "error"
    },
    {
      "inputs": [
        {
          "internalType": "address",
          "name": "owner",
          "type": "address"
        }
      ],
      "name": "OwnableInvalidOwner",
      "type": "error"
    },
    {
      "inputs": [
        {
          "internalType": "address",
          "name": "account",
          "type": "address"
        }
      ],
      "name": "OwnableUnauthorizedAccount",
      "type": "error"
    },
    {
      "inputs": [],
      "name": "UUPSUnauthorizedCallContext",
      "type": "error"
    },
    {
      "inputs": [
        {
          "internalType": "bytes32",
          "name": "slot",
          "type": "bytes32"
        }
      ],
      "name": "UUPSUnsupportedProxiableUUID",
      "type": "error"
    },
    {
      "anonymous": false,
      "inputs": [
        {
          "indexed": false,
          "internalType": "bool",
          "name": "success",
          "type": "bool"
        }
      ],
      "name": "ApproveSuccess",
      "type": "event"
    },
    {
      "anonymous": false,
      "inputs": [],
      "name": "EIP712DomainChanged",
      "type": "event"
    },
    {
      "anonymous": false,
      "inputs": [
        {
          "indexed": true,
          "internalType": "address",
          "name": "to",
          "type": "address"
        },
        {
          "indexed": false,
          "internalType": "uint256",
          "name": "value",
          "type": "uint256"
        }
      ],
      "name": "HandlingFee",
      "type": "event"
    },
    {
      "anonymous": false,
      "inputs": [
        {
          "indexed": false,
          "internalType": "uint256",
          "name": "eqID",
          "type": "uint256"
        },
        {
          "indexed": false,
          "internalType": "address",
          "name": "manager",
          "type": "address"
        },
        {
          "indexed": false,
          "internalType": "uint256",
          "name": "longFeeRating",
          "type": "uint256"
        },
        {
          "indexed": false,
          "internalType": "uint256",
          "name": "shortFeeRating",
          "type": "uint256"
        },
        {
          "indexed": false,
          "internalType": "uint256",
          "name": "managerRating",
          "type": "uint256"
        }
      ],
      "name": "InitSuccess",
      "type": "event"
    },
    {
      "anonymous": false,
      "inputs": [
        {
          "indexed": false,
          "internalType": "uint64",
          "name": "version",
          "type": "uint64"
        }
      ],
      "name": "Initialized",
      "type": "event"
    },
    {
      "anonymous": false,
      "inputs": [
        {
          "indexed": true,
          "internalType": "address",
          "name": "previousOwner",
          "type": "address"
        },
        {
          "indexed": true,
          "internalType": "address",
          "name": "newOwner",
          "type": "address"
        }
      ],
      "name": "OwnershipTransferred",
      "type": "event"
    },
    {
      "anonymous": false,
      "inputs": [
        {
          "indexed": true,
          "internalType": "address",
          "name": "redeemer",
          "type": "address"
        },
        {
          "indexed": false,
          "internalType": "uint256",
          "name": "totalValue",
          "type": "uint256"
        }
      ],
      "name": "Redeem",
      "type": "event"
    },
    {
      "anonymous": false,
      "inputs": [
        {
          "indexed": true,
          "internalType": "address",
          "name": "user",
          "type": "address"
        },
        {
          "indexed": false,
          "internalType": "uint256",
          "name": "value",
          "type": "uint256"
        }
      ],
      "name": "Refund",
      "type": "event"
    },
    {
      "anonymous": false,
      "inputs": [
        {
          "indexed": true,
          "internalType": "address",
          "name": "cashAccount",
          "type": "address"
        },
        {
          "indexed": false,
          "internalType": "address",
          "name": "safeAddr",
          "type": "address"
        },
        {
          "indexed": false,
          "internalType": "bytes32[]",
          "name": "conditionIds",
          "type": "bytes32[]"
        },
        {
          "indexed": false,
          "internalType": "uint256[]",
          "name": "indexSets",
          "type": "uint256[]"
        },
        {
          "indexed": false,
          "internalType": "address",
          "name": "stakeAddr",
          "type": "address"
        },
        {
          "indexed": false,
          "internalType": "uint256",
          "name": "eqAmount",
          "type": "uint256"
        }
      ],
      "name": "Sell",
      "type": "event"
    },
    {
      "anonymous": false,
      "inputs": [
        {
          "indexed": true,
          "internalType": "address",
          "name": "user",
          "type": "address"
        },
        {
          "indexed": false,
          "internalType": "uint256",
          "name": "value",
          "type": "uint256"
        }
      ],
      "name": "ShortPosition",
      "type": "event"
    },
    {
      "anonymous": false,
      "inputs": [
        {
          "indexed": true,
          "internalType": "address",
          "name": "implementation",
          "type": "address"
        }
      ],
      "name": "Upgraded",
      "type": "event"
    },
    {
      "anonymous": false,
      "inputs": [
        {
          "indexed": true,
          "internalType": "address",
          "name": "user",
          "type": "address"
        },
        {
          "indexed": false,
          "internalType": "uint256",
          "name": "value",
          "type": "uint256"
        }
      ],
      "name": "Withdraw",
      "type": "event"
    },
    {
      "inputs": [],
      "name": "UPGRADE_INTERFACE_VERSION",
      "outputs": [
        {
          "internalType": "string",
          "name": "",
          "type": "string"
        }
      ],
      "stateMutability": "view",
      "type": "function"
    },
    {
      "inputs": [
        {
          "components": [
            {
              "internalType": "address",
              "name": "managerAddr",
              "type": "address"
            },
            {
              "internalType": "bytes32[]",
              "name": "conditionIds",
              "type": "bytes32[]"
            },
            {
              "internalType": "uint256[]",
              "name": "indexSets",
              "type": "uint256[]"
            },
            {
              "internalType": "uint256[]",
              "name": "percents",
              "type": "uint256[]"
            },
            {
              "internalType": "string",
              "name": "stakeName",
              "type": "string"
            },
            {
              "internalType": "string",
              "name": "memo",
              "type": "string"
            }
          ],
          "internalType": "struct Signature.IDM",
          "name": "message",
          "type": "tuple"
        },
        {
          "internalType": "bytes",
          "name": "signature",
          "type": "bytes"
        },
        {
          "internalType": "address",
          "name": "safeAddr",
          "type": "address"
        },
        {
          "internalType": "address",
          "name": "platform",
          "type": "address"
        },
        {
          "internalType": "address",
          "name": "admin",
          "type": "address"
        },
        {
          "internalType": "address",
          "name": "eqToken",
          "type": "address"
        },
        {
          "internalType": "address",
          "name": "stakeBook",
          "type": "address"
        },
        {
          "internalType": "uint256",
          "name": "managerRating",
          "type": "uint256"
        },
        {
          "internalType": "uint256",
          "name": "longFeeRating",
          "type": "uint256"
        },
        {
          "internalType": "uint256",
          "name": "shortFeeRating",
          "type": "uint256"
        },
        {
          "internalType": "string",
          "name": "name",
          "type": "string"
        },
        {
          "internalType": "string",
          "name": "version",
          "type": "string"
        }
      ],
      "name": "__Vault_init",
      "outputs": [],
      "stateMutability": "nonpayable",
      "type": "function"
    },
    {
      "inputs": [],
      "name": "eip712Domain",
      "outputs": [
        {
          "internalType": "bytes1",
          "name": "fields",
          "type": "bytes1"
        },
        {
          "internalType": "string",
          "name": "name",
          "type": "string"
        },
        {
          "internalType": "string",
          "name": "version",
          "type": "string"
        },
        {
          "internalType": "uint256",
          "name": "chainId",
          "type": "uint256"
        },
        {
          "internalType": "address",
          "name": "verifyingContract",
          "type": "address"
        },
        {
          "internalType": "bytes32",
          "name": "salt",
          "type": "bytes32"
        },
        {
          "internalType": "uint256[]",
          "name": "extensions",
          "type": "uint256[]"
        }
      ],
      "stateMutability": "view",
      "type": "function"
    },
    {
      "inputs": [],
      "name": "getEqID",
      "outputs": [
        {
          "internalType": "uint256",
          "name": "",
          "type": "uint256"
        }
      ],
      "stateMutability": "view",
      "type": "function"
    },
    {
      "inputs": [],
      "name": "getFeeRating",
      "outputs": [
        {
          "internalType": "uint256",
          "name": "longFeeRating",
          "type": "uint256"
        },
        {
          "internalType": "uint256",
          "name": "shortFeeRating",
          "type": "uint256"
        }
      ],
      "stateMutability": "view",
      "type": "function"
    },
    {
      "inputs": [],
      "name": "getManagerRating",
      "outputs": [
        {
          "internalType": "uint256",
          "name": "",
          "type": "uint256"
        }
      ],
      "stateMutability": "view",
      "type": "function"
    },
    {
      "inputs": [
        {
          "internalType": "address",
          "name": "user",
          "type": "address"
        }
      ],
      "name": "getUserNonce",
      "outputs": [
        {
          "internalType": "uint256",
          "name": "",
          "type": "uint256"
        }
      ],
      "stateMutability": "view",
      "type": "function"
    },
    {
      "inputs": [],
      "name": "getVersion",
      "outputs": [
        {
          "internalType": "string",
          "name": "",
          "type": "string"
        }
      ],
      "stateMutability": "view",
      "type": "function"
    },
    {
      "inputs": [],
      "name": "owner",
      "outputs": [
        {
          "internalType": "address",
          "name": "",
          "type": "address"
        }
      ],
      "stateMutability": "view",
      "type": "function"
    },
    {
      "inputs": [],
      "name": "proxiableUUID",
      "outputs": [
        {
          "internalType": "bytes32",
          "name": "",
          "type": "bytes32"
        }
      ],
      "stateMutability": "view",
      "type": "function"
    },
    {
      "inputs": [],
      "name": "redeem",
      "outputs": [],
      "stateMutability": "nonpayable",
      "type": "function"
    },
    {
      "inputs": [
        {
          "components": [
            {
              "internalType": "address",
              "name": "admin",
              "type": "address"
            },
            {
              "internalType": "address",
              "name": "cashAccount",
              "type": "address"
            },
            {
              "internalType": "uint256",
              "name": "stakeAmount",
              "type": "uint256"
            },
            {
              "internalType": "bytes",
              "name": "subSignature",
              "type": "bytes"
            }
          ],
          "internalType": "struct Signature.AdminM",
          "name": "message",
          "type": "tuple"
        },
        {
          "internalType": "bytes",
          "name": "signature",
          "type": "bytes"
        }
      ],
      "name": "refund",
      "outputs": [],
      "stateMutability": "nonpayable",
      "type": "function"
    },
    {
      "inputs": [],
      "name": "renounceOwnership",
      "outputs": [],
      "stateMutability": "nonpayable",
      "type": "function"
    },
    {
      "inputs": [
        {
          "components": [
            {
              "internalType": "address",
              "name": "admin",
              "type": "address"
            },
            {
              "internalType": "address",
              "name": "cashAccount",
              "type": "address"
            },
            {
              "internalType": "uint256",
              "name": "stakeAmount",
              "type": "uint256"
            },
            {
              "internalType": "bytes",
              "name": "subSignature",
              "type": "bytes"
            }
          ],
          "internalType": "struct Signature.AdminM",
          "name": "Amessage",
          "type": "tuple"
        },
        {
          "components": [
            {
              "internalType": "address",
              "name": "userEOA",
              "type": "address"
            },
            {
              "internalType": "address",
              "name": "cashAccount",
              "type": "address"
            },
            {
              "internalType": "uint256",
              "name": "eqAmount",
              "type": "uint256"
            },
            {
              "internalType": "uint256",
              "name": "nonce",
              "type": "uint256"
            }
          ],
          "internalType": "struct Signature.ShortPositionM",
          "name": "SPmessage",
          "type": "tuple"
        },
        {
          "internalType": "bytes",
          "name": "AdminMsignature",
          "type": "bytes"
        }
      ],
      "name": "shortPosition",
      "outputs": [],
      "stateMutability": "nonpayable",
      "type": "function"
    },
    {
      "inputs": [
        {
          "components": [
            {
              "internalType": "address",
              "name": "admin",
              "type": "address"
            },
            {
              "internalType": "address",
              "name": "cashAccount",
              "type": "address"
            },
            {
              "internalType": "uint256",
              "name": "stakeAmount",
              "type": "uint256"
            },
            {
              "internalType": "bytes",
              "name": "subSignature",
              "type": "bytes"
            }
          ],
          "internalType": "struct Signature.AdminM",
          "name": "message",
          "type": "tuple"
        },
        {
          "internalType": "bytes",
          "name": "signature",
          "type": "bytes"
        }
      ],
      "name": "transfer",
      "outputs": [],
      "stateMutability": "nonpayable",
      "type": "function"
    },
    {
      "inputs": [
        {
          "internalType": "address",
          "name": "newOwner",
          "type": "address"
        }
      ],
      "name": "transferOwnership",
      "outputs": [],
      "stateMutability": "nonpayable",
      "type": "function"
    },
    {
      "inputs": [
        {
          "internalType": "address",
          "name": "newImplementation",
          "type": "address"
        },
        {
          "internalType": "bytes",
          "name": "data",
          "type": "bytes"
        }
      ],
      "name": "upgradeToAndCall",
      "outputs": [],
      "stateMutability": "payable",
      "type": "function"
    },
    {
      "inputs": [
        {
          "components": [
            {
              "internalType": "address",
              "name": "admin",
              "type": "address"
            },
            {
              "internalType": "address",
              "name": "cashAccount",
              "type": "address"
            },
            {
              "internalType": "uint256",
              "name": "stakeAmount",
              "type": "uint256"
            },
            {
              "internalType": "bytes",
              "name": "subSignature",
              "type": "bytes"
            }
          ],
          "internalType": "struct Signature.AdminM",
          "name": "Amessage",
          "type": "tuple"
        },
        {
          "components": [
            {
              "internalType": "address",
              "name": "userEOA",
              "type": "address"
            },
            {
              "internalType": "address",
              "name": "cashAccount",
              "type": "address"
            },
            {
              "internalType": "uint256",
              "name": "nonce",
              "type": "uint256"
            }
          ],
          "internalType": "struct Signature.WithdrawM",
          "name": "message",
          "type": "tuple"
        },
        {
          "internalType": "bytes",
          "name": "AdminMsignature",
          "type": "bytes"
        }
      ],
      "name": "withdraw",
      "outputs": [],
      "stateMutability": "nonpayable",
      "type": "function"
    }
  ],
  "bytecode": "0x60a0806040523461002a573060805261325f908161003082396080518181816110fe01526111b70152f35b600080fdfe608080604052600436101561001357600080fd5b600090813560e01c90816301b16948146123b7575080630a9d2dd7146114dc5780630d8e6e2c146113e85780634707e3981461139d5780634f1ef2861461116857806352d1902d146110eb5780636834e3a8146110be578063715018a6146110545780637646132d1461101757806384b0196e14610ed65780638da5cb5b14610ea057806391fed7ec14610aa5578063a238992f14610739578063ad3cb1cc146106ef578063be040fb0146101fa578063c4cba2be14610197578063f2fde38b1461016a5763fea6a60b146100e757600080fd5b34610167576101016100f836612553565b90829392612a04565b50507f78bafcfdabfc318e15c08023b2e0d363d041f1b39c72f3e72712d528a59cf8946020808301610149610144604061013a846125fe565b9601358096612b54565b6128fb565b6001600160a01b039061015b906125fe565b1692604051908152a280f35b80fd5b50346101675760203660031901126101675761019461018761240d565b61018f612c31565b612990565b80f35b503461016757806003193601126101675760407f3cc2c570dc8e742461e8801779a650a0990230ea9c9102588e87f22f57f1b704547f3cc2c570dc8e742461e8801779a650a0990230ea9c9102588e87f22f57f1b7055482519182526020820152f35b5034610167578060031936011261016757610213612c31565b60008051602061320a833981519152546000805160206131ca833981519152546040516370a0823160e01b81526001600160a01b0391821660048201529160209183916024918391165afa9081156106e45782916106b2575b506102987f3cc2c570dc8e742461e8801779a650a0990230ea9c9102588e87f22f57f1b7065482612cea565b90808281031161069e577f3cc2c570dc8e742461e8801779a650a0990230ea9c9102588e87f22f57f1b701546102d89083906001600160a01b0316612b54565b7f3cc2c570dc8e742461e8801779a650a0990230ea9c9102588e87f22f57f1b7025461031090848403906001600160a01b0316612b54565b81610696575b501561065157825b6000805160206130ca833981519152548110156104f1576040519061034282612467565b600182526020368184013760008051602061318a83398151915280548210156104db576000528060008051602061314a83398151915201548251156104c7576020830152602060018060a01b0360008051602061320a8339815191525416926000805160206130ca833981519152600052826000805160206131aa833981519152015460405194626dc0df60e21b84870152602486015260448881870152606491828701528860809161041288610404608497868984015260a483019061259e565b03601f1981018a5289612482565b60018060a01b036000805160206131ca833981519152541693600061046f6040519a8b988997889663468721a760e01b8852734d97dcd97ec945f40cf65f87097ace5ea04760456004890152856024890152870152850190612513565b9183015203925af19182156104bc5760019261048d575b500161031e565b6104ae9060203d6020116104b5575b6104a68183612482565b810190612978565b5038610486565b503d61049c565b6040513d87823e3d90fd5b634e487b7160e01b86526032600452602486fd5b634e487b7160e01b600052603260045260246000fd5b5060008051602061320a833981519152546000805160206131ca833981519152546040516370a0823160e01b81526001600160a01b03918216600482015293929160209185916024918391165afa92831561064657849361060c575b506020809160018060a01b037f3cc2c570dc8e742461e8801779a650a0990230ea9c9102588e87f22f57f1b70154166040518581527f5d0d9ca44631fcdcc0af25fca6235bc83546f04ae20e7c473c7558d232fef977948591a27f3cc2c570dc8e742461e8801779a650a0990230ea9c9102588e87f22f57f1b702546040519490910384526001600160a01b031692a26040519081527f222838db2794d11532d940e8dec38ae307ed0b63cd97c233322e221f998767a660203392a280f35b9092506020813d60201161063e575b8161062860209383612482565b81010312610639575191602061054d565b600080fd5b3d915061061b565b6040513d86823e3d90fd5b60405162461bcd60e51b815260206004820152601a60248201527f54686520466565207472616e73636174696f6e206661696c65640000000000006044820152606490fd5b905038610316565b634e487b7160e01b83526011600452602483fd5b90506020813d6020116106dc575b816106cd60209383612482565b8101031261063957513861026c565b3d91506106c0565b6040513d84823e3d90fd5b503461016757806003193601126101675761073560405161070f81612467565b60058152640352e302e360dc1b6020820152604051918291602083526020830190612513565b0390f35b50346101675760031960c036820112610aa1576004356001600160401b0391828211610a2d576080908236030112610a9d576080366023190112610a9d5760a435918211610a9d5761079261079b9236906004016123e0565b91600401612a04565b6107a36125d2565b9161083e6107af6125e8565b916108356064359461082f608435936108276040519960209a8b8101917ffecc92039c99582f891eaf0fcad7298c08ed0ecde619cfbb7ac31b01f48693a6835260018060a01b039a8b80921660408401521660608201528a60808201528760a082015260a0815261081f8161244c565b519020612c6a565b9236916124be565b90612e46565b90939193612e82565b826108476125d2565b16838316149081610a8a575b5015610a45576108629061293f565b91825460019360018201809211610a31575584827f3cc2c570dc8e742461e8801779a650a0990230ea9c9102588e87f22f57f1b70b54166108a16125e8565b6000805160206130aa8339815191525490823b15610a2d57604051635e09420f60e01b81526001600160a01b039190911660048201526024810191909152604481018490529082908290606490829084905af180156106e457610a15575b50506109096125e8565b90826000805160206131ca8339815191525416948360008051602061320a8339815191525416906040519560a0870197875260a0828801526000805160206130ca8339815191525480985260c08701976000805160206131aa833981519152908a5b818110610a0257505050868803604088015260008051602061318a833981519152978289549182815201988a5260008051602061314a833981519152928a905b8282106109ed578b8b7f03dee55c30a700c170db8165118dae1a712d459a13514732a0c3f4d7308d29a78c808d8d8d8d6060850152608084015216930390a280f35b84548b52998a019993830193908301906109ab565b82548b529984019991830191830161096b565b610a1e90612423565b610a295784386108ff565b8480fd5b8380fd5b634e487b7160e01b87526011600452602487fd5b60405162461bcd60e51b815260048101859052601760248201527f53504d7369676e617475726520697320696c6c6567616c0000000000000000006044820152606490fd5b9050610a958261293f565b541438610853565b8280fd5b5080fd5b50346101675760031960a036820112610aa1576004356001600160401b0391828211610a2d576080908236030112610a9d576060366023190112610a9d5760843590828211610a2d57610792610aff9236906004016123e0565b610b0a9291926125d2565b90610b136125e8565b9360643592604051602095868201927feb8fbaf603ee0179cfc7ec2e446848c2f956766570ae4f60f6c9ca4f363e2ddb845260018060a01b03988980921660408501521660608301528560808301526080825260a082019082821090821117610e8c5792610827610b9396959361082f9361083596604052519020612c6a565b83610b9c6125d2565b16848316149081610e79575b5015610e3457610bb79061293f565b80549060018201809211610e205755817f3cc2c570dc8e742461e8801779a650a0990230ea9c9102588e87f22f57f1b70b541691610bf36125e8565b6000805160206130aa83398151915254604051627eeac760e11b81526001600160a01b03929092166004830152602482018190529085908481604481895afa9081156106e4578291610df3575b50604051637872033160e11b81526004810184905285816024818a5afa908115610de8578391610dbb575b508460008051602061320a83398151915254169086866000805160206131ca83398151915254166024604051809581936370a0823160e01b835260048301525afa80156106465783908590610d8a575b610cc59350612d63565b95610cce6125e8565b93813b15610a2d57604051635e09420f60e01b81526001600160a01b03959095166004860152602485015260448401919091528290606490829084905af180156104bc57610d55575b50907f884edad9ce6fa2440d8a54cc123490eb96d2768479d49ff9c7366125a942436491610d4c84610d476125e8565b612b54565b5061015b6125e8565b93610d827f884edad9ce6fa2440d8a54cc123490eb96d2768479d49ff9c7366125a9424364939295612423565b939091610d17565b50508682813d8311610db4575b610da18183612482565b81010312610a2d5782610cc59251610cbb565b503d610d97565b90508581813d8311610de1575b610dd28183612482565b81010312610a9d575138610c6b565b503d610dc8565b6040513d85823e3d90fd5b90508481813d8311610e19575b610e0a8183612482565b81010312610aa1575138610c40565b503d610e00565b634e487b7160e01b85526011600452602485fd5b60405162461bcd60e51b815260048101839052601b60248201527f57697468647261774d6d65737361676520697320696c6c6567616c00000000006044820152606490fd5b9050610e848261293f565b541438610ba8565b634e487b7160e01b89526041600452602489fd5b503461016757806003193601126101675760008051602061312a833981519152546040516001600160a01b039091168152602090f35b50346101675780600319360112610167577fa16a46d94261c7517cc8ff89f61c0ce93598e3c849801011dee649a6a557d100541580610fee575b15610fb157610f1d612774565b610f2561284c565b60405190602082018281106001600160401b03821117610f9d5791610f7e610f70959261073594604052838352604051968796600f60f81b885260e0602089015260e0880190612513565b908682036040880152612513565b9146606086015230608086015260a085015283820360c085015261259e565b634e487b7160e01b85526041600452602485fd5b60405162461bcd60e51b81526020600482015260156024820152741152540dcc4c8e88155b9a5b9a5d1a585b1a5e9959605a1b6044820152606490fd5b507fa16a46d94261c7517cc8ff89f61c0ce93598e3c849801011dee649a6a557d1015415610f10565b503461016757806003193601126101675760207f3cc2c570dc8e742461e8801779a650a0990230ea9c9102588e87f22f57f1b70654604051908152f35b503461016757806003193601126101675761106d612c31565b60008051602061312a83398151915280546001600160a01b0319811690915581906001600160a01b03167f8be0079c531659141344cd1fd0a4f28419497f9722a3daafe3b4186f6b6457e08280a380f35b50346101675760203660031901126101675760206110e26110dd61240d565b61293f565b54604051908152f35b50346101675780600319360112610167577f00000000000000000000000000000000000000000000000000000000000000006001600160a01b031630036111565760206040517f360894a13ba1a3210667c828492db98dca3e2076cc3735a920a3ca505d382bbc8152f35b60405163703e46dd60e11b8152600490fd5b5060403660031901126101675761117d61240d565b6024356001600160401b038111610a9d5736602382011215610a9d576111ad9036906024816004013591016124be565b6001600160a01b037f0000000000000000000000000000000000000000000000000000000000000000811630811490811561136f575b50611156576111f0612c31565b6040516352d1902d60e01b8152908316926020918281600481885afa86918161133c575b5061123257604051634c9c8ce360e01b815260048101869052602490fd5b9385947f360894a13ba1a3210667c828492db98dca3e2076cc3735a920a3ca505d382bbc908181036113245750823b1561130b5780546001600160a01b0319168217905560405185917fbc7cd75a20ee27fd9adebab32041f755214dbc6bffa90cc0225b39da2e5c2d3b8380a28451156112ee57508084846112e196519101845af4903d156112e5573d6112c5816124a3565b906112d36040519283612482565b81528581943d92013e612f97565b5080f35b60609250612f97565b9350505050346112fc575080f35b63b398979f60e01b8152600490fd5b604051634c9c8ce360e01b815260048101839052602490fd5b60249060405190632a87526960e21b82526004820152fd5b9091508381813d8311611368575b6113548183612482565b8101031261136457519038611214565b8680fd5b503d61134a565b9050817f360894a13ba1a3210667c828492db98dca3e2076cc3735a920a3ca505d382bbc54161415386111e3565b5034610167576113af6100f836612553565b50507fbb28353e4598c3b9199101a66e0989549b659a59a54d2c27fbb183f1932c8e6d6020808301610149610144604061013a846125fe565b50346101675780600319360112610167576040519080826000805160206130ea83398151915292835461141a8161273a565b93848452602095600192876001821691826000146114b857505060011461145f575b50505061144b92500383612482565b610735604051928284938452830190612513565b8152859250907f4142c05e6712865077173cba37d59fa4f84d806e9d743c852ceeb6d071f2e5e05b8583106114a057505061144b935082010138808061143c565b80548389018501528794508693909201918101611487565b93509450505061144b94915060ff191682840152151560051b82010138808061143c565b503461016757610180366003190112610167576001600160401b03600435116101675760c060043536036003190112610167576024356001600160401b038111610aa15761152e9036906004016123e0565b6044359291906001600160a01b0384168403610a9d57606435916001600160a01b0383168303610a2d576084356001600160a01b0381169003610a2d5760a435906001600160a01b0382168203610a295760c4356001600160a01b038116810361200757610144356001600160401b038111611364576115b29036906004016124f5565b94610164356001600160401b0381116123b3576115d39036906004016124f5565b976000805160206131ea83398151915254966001600160401b03881615806123a5575b60016001600160401b038a1614908161239b575b159081612392575b506123805760016001600160401b03198916176000805160206131ea8339815191525560ff8860401c1615612353575b61164a612e17565b611652612e17565b61165d608435612990565b611665612e17565b61166d612e17565b8051906001600160401b03821161233f57819061169860008051602061310a8339815191525461273a565b601f81116122e4575b50602090601f8311600114612242578b92612237575b50508160011b916000199060031b1c19161760008051602061310a833981519152555b88516001600160401b038111610e8c5761170260008051602061316a8339815191525461273a565b601f81116121dc575b50806020601f821160011461213e578a91612133575b508160011b916000199060031b1c19161760008051602061316a833981519152555b7fa16a46d94261c7517cc8ff89f61c0ce93598e3c849801011dee649a6a557d1008890557fa16a46d94261c7517cc8ff89f61c0ce93598e3c849801011dee649a6a557d1018890556000805160206131ca83398151915280546001600160a01b0319166001600160a01b039283161790556117c160048035016125fe565b167f3cc2c570dc8e742461e8801779a650a0990230ea9c9102588e87f22f57f1b701906001600160601b0360a01b8254161790557f3cc2c570dc8e742461e8801779a650a0990230ea9c9102588e87f22f57f1b7029060018060a01b03166001600160601b0360a01b8254161790557f3cc2c570dc8e742461e8801779a650a0990230ea9c9102588e87f22f57f1b70360018060a01b03608435166001600160601b0360a01b825416179055610104357f3cc2c570dc8e742461e8801779a650a0990230ea9c9102588e87f22f57f1b70455610124357f3cc2c570dc8e742461e8801779a650a0990230ea9c9102588e87f22f57f1b7055560e4357f3cc2c570dc8e742461e8801779a650a0990230ea9c9102588e87f22f57f1b706556118f2602460043501600435600401612612565b906001600160401b03821161208857600160401b8211612088576000805160206130ca83398151915254826000805160206130ca83398151915255808310612104575b506000805160206130ca8339815191528852875b8281106120e257505050611967604460043501600435600401612612565b906001600160401b03821161208857600160401b82116120885760008051602061318a833981519152548260008051602061318a833981519152558083106120be575b5060008051602061318a8339815191528852875b82811061209c575050506119dc606460043501600435600401612612565b906001600160401b03821161208857600160401b8211612088577f3cc2c570dc8e742461e8801779a650a0990230ea9c9102588e87f22f57f1b70954827f3cc2c570dc8e742461e8801779a650a0990230ea9c9102588e87f22f57f1b70955808310612052575b507f3cc2c570dc8e742461e8801779a650a0990230ea9c9102588e87f22f57f1b7098852875b82811061201e575050506020611ab391611a8d60846004350160043560040161265e565b604092919251809581948293630a6c32dd60e11b84528760048501526024840191612690565b03916001600160a01b03165afa908115612013578691611fcd575b5060008051602061320a83398151915280546001600160a01b03199081166001600160a01b03938416179091557f3cc2c570dc8e742461e8801779a650a0990230ea9c9102588e87f22f57f1b70b8054909116848316179055604080516326a8119360e01b8152600480820192909252949181359091013590811690819003611364578685611c3e81956020979583956044850152611c2c611b8f611b7d6024600435016004356004016126b1565b60c060648901526101048801916126e5565b611c08611be4611bc0611bac6044600435016004356004016126b1565b6043198b8703810160848d015295916126e5565b611bd46064600435016004356004016126b1565b90858b84030160a48c01526126e5565b611bf8608460043501600435600401612709565b90848a84030160c48b0152612690565b90611c1d60a460043501600435600401612709565b918884030160e4890152612690565b84810360031901602486015291612690565b03926001600160a01b03165af1908115610de8578391611f9b575b506000805160206130aa833981519152558251926001600160401b038411611f8757611c936000805160206130ea8339815191525461273a565b601f8111611f21575b50602090601f8511600114611e805793809184958592611e75575b50508160011b916000199060031b1c1916176000805160206130ea833981519152555b7fc1e7828232bb48e0fd21b182d7f19967d7fa73e110a530bc861762b6e65cb4b860a06000805160206130aa83398151915254611d1b6004356004016125fe565b604051918252600180841b0316602082015261010435604082015261012435606082015260e4356080820152a160008051602061320a8339815191525460405163095ea7b360e01b8152734bfb41d5b3570defd03c39a9a4d8de6bd8b8982e6004820152789f4f2726179a224501d762422c946590d9100000000000000060248201529260209184916044918391906001600160a01b03165af1918215610de85760ff92611e56575b507fbd1145a8348ebec7101ddc9d4242efe47a3386f11f3f811ac72c31229d6c0da7602060405160018152a160401c1615611dfc5780f35b68ff0000000000000000196000805160206131ea83398151915254166000805160206131ea833981519152557fc7f505b2f371ae2175ee4913f4499e1f2633a7b5936321eed1cdaeb6115181d2602060405160018152a180f35b611e6e9060203d6020116104b5576104a68183612482565b5038611dc4565b015190503880611cb7565b906000805160206130ea83398151915284527f4142c05e6712865077173cba37d59fa4f84d806e9d743c852ceeb6d071f2e5e091845b601f1987168110611f0957509185916001938697601f19811610611ef0575b505050811b016000805160206130ea83398151915255611cda565b015160001960f88460031b161c19169055388080611ed5565b91926020600181928685015181550194019201611eb6565b611f77906000805160206130ea83398151915285527f4142c05e6712865077173cba37d59fa4f84d806e9d743c852ceeb6d071f2e5e0601f870160051c81019160208810611f7d575b601f0160051c0190612647565b38611c9c565b9091508190611f6a565b634e487b7160e01b83526041600452602483fd5b90506020813d602011611fc5575b81611fb660209383612482565b81010312610a9d575138611c59565b3d9150611fa9565b90506020813d60201161200b575b81611fe860209383612482565b8101031261200757516001600160a01b03811681036120075738611ace565b8580fd5b3d9150611fdb565b6040513d88823e3d90fd5b60019060208335930192817f98bc916edf8ede1090c27ae5756e17d8f119ba3491858860e83533ede900077d015501611a69565b61208290837f98bc916edf8ede1090c27ae5756e17d8f119ba3491858860e83533ede900077d9182019101612647565b38611a43565b634e487b7160e01b88526041600452602488fd5b600190602083359301928160008051602061314a8339815191520155016119be565b6120dc908360008051602061314a8339815191529182019101612647565b386119aa565b60019060208335930192816000805160206131aa833981519152015501611949565b6000805160206131aa833981519152908382015b8183018110612128575050611935565b8a8155600101612118565b90508a015138611721565b915060008051602061316a8339815191528a527f5f9ce34815f8e11431c7bb75a8e6886a91478f7ffc1dbb0a98dc240fddd76b758a925b8c601f19841685106121c557506001935082601f198116106121ac575b5050811b0160008051602061316a83398151915255611743565b8c015160001960f88460031b161c191690553880612192565b810151825560209384019360019092019101612175565b6122319060008051602061316a8339815191528b527f5f9ce34815f8e11431c7bb75a8e6886a91478f7ffc1dbb0a98dc240fddd76b75601f840160051c81019160208510611f7d57601f0160051c0190612647565b3861170b565b0151905038806116b7565b925060008051602061310a8339815191528b527f42ad5d3e1f2e6e70edcf6d991b8a3023d3fca8047a131592f9edb9fd9b89d57d908b935b601f19841685106122c9576001945083601f198116106122b0575b505050811b0160008051602061310a833981519152556116da565b015160001960f88460031b161c19169055388080612295565b8181015183556020948501946001909301929091019061227a565b6123399060008051602061310a8339815191528d527f42ad5d3e1f2e6e70edcf6d991b8a3023d3fca8047a131592f9edb9fd9b89d57d601f850160051c81019160208610611f7d57601f0160051c0190612647565b386116a1565b634e487b7160e01b8a52604160045260248afd5b68ffffffffffffffffff19881668010000000000000001176000805160206131ea83398151915255611642565b60405163f92ee8a960e01b8152600490fd5b90501538611612565b303b15915061160a565b5060ff8860401c16156115f6565b8780fd5b905034610aa15781600319360112610aa1576020906000805160206130aa833981519152548152f35b9181601f84011215610639578235916001600160401b038311610639576020838186019501011161063957565b600435906001600160a01b038216820361063957565b6001600160401b03811161243657604052565b634e487b7160e01b600052604160045260246000fd5b60c081019081106001600160401b0382111761243657604052565b604081019081106001600160401b0382111761243657604052565b90601f801991011681019081106001600160401b0382111761243657604052565b6001600160401b03811161243657601f01601f191660200190565b9291926124ca826124a3565b916124d86040519384612482565b829481845281830111610639578281602093846000960137010152565b9080601f8301121561063957816020612510933591016124be565b90565b919082519283825260005b84811061253f575050826000602080949584010152601f8019910116010190565b60208183018101518483018201520161251e565b90600319604081840112610639576004356001600160401b039182821161063957608090828603011261063957600401926024359182116106395761259a916004016123e0565b9091565b90815180825260208080930193019160005b8281106125be575050505090565b8351855293810193928101926001016125b0565b6024356001600160a01b03811681036106395790565b6044356001600160a01b03811681036106395790565b356001600160a01b03811681036106395790565b903590601e198136030182121561063957018035906001600160401b03821161063957602001918160051b3603831361063957565b818110612652575050565b60008155600101612647565b903590601e198136030182121561063957018035906001600160401b0382116106395760200191813603831361063957565b908060209392818452848401376000828201840152601f01601f1916010190565b9035601e19823603018112156106395701602081359101916001600160401b038211610639578160051b3603831361063957565b81835290916001600160fb1b0383116106395760209260051b809284830137010190565b9035601e19823603018112156106395701602081359101916001600160401b03821161063957813603831361063957565b90600182811c9216801561276a575b602083101461275457565b634e487b7160e01b600052602260045260246000fd5b91607f1691612749565b6040519060008260008051602061310a833981519152918254926127978461273a565b8084529360209160019182811690811561282657506001146127c5575b5050506127c392500383612482565b565b60009081527f42ad5d3e1f2e6e70edcf6d991b8a3023d3fca8047a131592f9edb9fd9b89d57d9590935091905b82841061280e57506127c39450505081016020013880806127b4565b855488850183015294850194879450928101926127f2565b92505050602092506127c394915060ff191682840152151560051b8201013880806127b4565b6040519060008260008051602061316a8339815191529182549261286f8461273a565b80845293602091600191828116908115612826575060011461289a575050506127c392500383612482565b60009081527f5f9ce34815f8e11431c7bb75a8e6886a91478f7ffc1dbb0a98dc240fddd76b759590935091905b8284106128e357506127c39450505081016020013880806127b4565b855488850183015294850194879450928101926128c7565b1561290257565b60405162461bcd60e51b8152602060048201526015602482015274135bd91d5b1948195e1958dd5d194819985a5b1959605a1b6044820152606490fd5b6001600160a01b031660009081527f3cc2c570dc8e742461e8801779a650a0990230ea9c9102588e87f22f57f1b70d6020526040902090565b90816020910312610639575180151581036106395790565b6001600160a01b039081169081156129eb5760008051602061312a83398151915280546001600160a01b031981168417909155167f8be0079c531659141344cd1fd0a4f28419497f9722a3daafe3b4186f6b6457e0600080a3565b604051631e4fbdf760e01b815260006004820152602490fd5b9190612ab1612aa8612a15856125fe565b9361082f612a25602088016125fe565b946108276060890197612a42612a3b8a8c61265e565b36916124be565b602081519101206040519060208201927f0f4661be148054664fa6b9eee74d99e101a6bea68de541f0c314dfd892092ec5845260018060a01b039a8b809216604085015216606083015260408c0135608083015260a082015260a0815261081f8161244c565b90929192612e82565b8180612abc866125fe565b169116149081612b1b575b5015612ad65761259a9161265e565b60405162461bcd60e51b815260206004820152601a60248201527f41646d696e4d7369676e617475726520697320696c6c6567616c0000000000006044820152606490fd5b9050612b26836125fe565b90807f3cc2c570dc8e742461e8801779a650a0990230ea9c9102588e87f22f57f1b703541691161438612ac7565b60405163a9059cbb60e01b6020808301919091526001600160a01b03929092166024820152604480820193909352918252612bf091612b94606482612482565b60018060a01b03806000805160206131ca83398151915254169060008051602061320a8339815191525416600060405180968195829463468721a760e01b84526004840152836024840152608060448401526084830190612513565b82606483015203925af1908115612c2557600091612c0c575090565b612510915060203d6020116104b5576104a68183612482565b6040513d6000823e3d90fd5b60008051602061312a833981519152546001600160a01b03163303612c5257565b60405163118cdaa760e01b8152336004820152602490fd5b604290612c75612ffa565b612c7d613064565b6040519060208201927f8b73c3c69bb8fe3d512ecc4cf759cc79239f7b179b0ffacaa9a75d522b39400f8452604083015260608201524660808201523060a082015260a08152612ccc8161244c565b519020906040519161190160f01b8352600283015260228201522090565b60001982820982820291828083109203918083039214612d59578160641115612d46577f5c28f5c28f5c28f5c28f5c28f5c28f5c28f5c28f5c28f5c28f5c28f5c28f5c29936064910990828211900360fe1b910360021c170290565b634e487b7160005260116020526024601cfd5b5050606491500490565b90916000198383099280830292838086109503948086039514612df35784831115612dda579082910981600003821680920460028082600302188083028203028083028203028083028203028083028203028083028203028092029003029360018380600003040190848311900302920304170290565b82634e487b71600052156003026011186020526024601cfd5b505080925015612e01570490565b634e487b7160e01b600052601260045260246000fd5b60ff6000805160206131ea8339815191525460401c1615612e3457565b604051631afcd79f60e31b8152600490fd5b8151919060418303612e7757612e7092506020820151906060604084015193015160001a90612f07565b9192909190565b505060009160029190565b6004811015612ef15780612e94575050565b60018103612eae5760405163f645eedf60e01b8152600490fd5b60028103612ecf5760405163fce698f760e01b815260048101839052602490fd5b600314612ed95750565b602490604051906335e2f38360e21b82526004820152fd5b634e487b7160e01b600052602160045260246000fd5b91907f7fffffffffffffffffffffffffffffff5d576e7357a4501ddfe92f46681b20a08411612f8b57926020929160ff608095604051948552168484015260408301526060820152600092839182805260015afa15612f7f5780516001600160a01b03811615612f7657918190565b50809160019190565b604051903d90823e3d90fd5b50505060009160039190565b90612fbe5750805115612fac57602081519101fd5b60405163d6bda27560e01b8152600490fd5b81511580612ff1575b612fcf575090565b604051639996b31560e01b81526001600160a01b039091166004820152602490fd5b50803b15612fc7565b613002612774565b8051908115613012576020012090565b50507fa16a46d94261c7517cc8ff89f61c0ce93598e3c849801011dee649a6a557d10054801561303f5790565b507fc5d2460186f7233c927e7db2dcc703c0e500b653ca82273b7bfad8045d85a47090565b61306c61284c565b805190811561307c576020012090565b50507fa16a46d94261c7517cc8ff89f61c0ce93598e3c849801011dee649a6a557d10154801561303f579056fe3cc2c570dc8e742461e8801779a650a0990230ea9c9102588e87f22f57f1b70c3cc2c570dc8e742461e8801779a650a0990230ea9c9102588e87f22f57f1b7073cc2c570dc8e742461e8801779a650a0990230ea9c9102588e87f22f57f1b70ea16a46d94261c7517cc8ff89f61c0ce93598e3c849801011dee649a6a557d1029016d09d72d40fdae2fd8ceac6b6234c7706214fd39c1cd1e609a0528c199300a0e5da9528727626dad92844bc38ea8dcde86e779a81edcd3cafa3cf9c517158a16a46d94261c7517cc8ff89f61c0ce93598e3c849801011dee649a6a557d1033cc2c570dc8e742461e8801779a650a0990230ea9c9102588e87f22f57f1b70823f3f3b9f71d756167e9ac086f10b7f9f458da11636a449cf71469fc82ccc0f73cc2c570dc8e742461e8801779a650a0990230ea9c9102588e87f22f57f1b700f0c57e16840df040f15088dc2f81fe391c3923bec73e23a9662efc9c229c6a003cc2c570dc8e742461e8801779a650a0990230ea9c9102588e87f22f57f1b70aa2646970667358221220890eaff7ab43602615aa0f4b9e9ffafba4517c75fecbced48d0ca0a171bbafe464736f6c63430008180033",
  "linkReferences": {},
  "deployedLinkReferences": {}
}