{
  "_format": "hh-sol-artifact-1",
  "contractName": "VaultRelayer",
  "sourceName": "contracts/upgradeable_contract/VaultRelayer.sol",
  "abi": [
    {
      "inputs": [],
      "name": "AccessControlBadConfirmation",
      "type": "error"
    },
    {
      "inputs": [
        {
          "internalType": "address",
          "name": "account",
          "type": "address"
        },
        {
          "internalType": "bytes32",
          "name": "neededRole",
          "type": "bytes32"
        }
      ],
      "name": "AccessControlUnauthorizedAccount",
      "type": "error"
    },
    {
      "inputs": [
        {
          "internalType": "address",
          "name": "target",
          "type": "address"
        }
      ],
      "name": "AddressEmptyCode",
      "type": "error"
    },
    {
      "inputs": [
        {
          "internalType": "address",
          "name": "implementation",
          "type": "address"
        }
      ],
      "name": "ERC1967InvalidImplementation",
      "type": "error"
    },
    {
      "inputs": [],
      "name": "ERC1967NonPayable",
      "type": "error"
    },
    {
      "inputs": [],
      "name": "FailedCall",
      "type": "error"
    },
    {
      "inputs": [],
      "name": "InvalidInitialization",
      "type": "error"
    },
    {
      "inputs": [],
      "name": "NotInitializing",
      "type": "error"
    },
    {
      "inputs": [],
      "name": "UUPSUnauthorizedCallContext",
      "type": "error"
    },
    {
      "inputs": [
        {
          "internalType": "bytes32",
          "name": "slot",
          "type": "bytes32"
        }
      ],
      "name": "UUPSUnsupportedProxiableUUID",
      "type": "error"
    },
    {
      "anonymous": false,
      "inputs": [
        {
          "indexed": true,
          "internalType": "address",
          "name": "userAddr",
          "type": "address"
        },
        {
          "indexed": true,
          "internalType": "address",
          "name": "vaultAddr",
          "type": "address"
        },
        {
          "indexed": false,
          "internalType": "string",
          "name": "stakeName",
          "type": "string"
        },
        {
          "indexed": false,
          "internalType": "uint256",
          "name": "value",
          "type": "uint256"
        }
      ],
      "name": "Deposit",
      "type": "event"
    },
    {
      "anonymous": false,
      "inputs": [
        {
          "indexed": false,
          "internalType": "uint64",
          "name": "version",
          "type": "uint64"
        }
      ],
      "name": "Initialized",
      "type": "event"
    },
    {
      "anonymous": false,
      "inputs": [
        {
          "indexed": true,
          "internalType": "address",
          "name": "vaultAddr",
          "type": "address"
        },
        {
          "indexed": false,
          "internalType": "address",
          "name": "moduleAddr",
          "type": "address"
        }
      ],
      "name": "NewVault",
      "type": "event"
    },
    {
      "anonymous": false,
      "inputs": [
        {
          "indexed": true,
          "internalType": "bytes32",
          "name": "role",
          "type": "bytes32"
        },
        {
          "indexed": true,
          "internalType": "bytes32",
          "name": "previousAdminRole",
          "type": "bytes32"
        },
        {
          "indexed": true,
          "internalType": "bytes32",
          "name": "newAdminRole",
          "type": "bytes32"
        }
      ],
      "name": "RoleAdminChanged",
      "type": "event"
    },
    {
      "anonymous": false,
      "inputs": [
        {
          "indexed": true,
          "internalType": "bytes32",
          "name": "role",
          "type": "bytes32"
        },
        {
          "indexed": true,
          "internalType": "address",
          "name": "account",
          "type": "address"
        },
        {
          "indexed": true,
          "internalType": "address",
          "name": "sender",
          "type": "address"
        }
      ],
      "name": "RoleGranted",
      "type": "event"
    },
    {
      "anonymous": false,
      "inputs": [
        {
          "indexed": true,
          "internalType": "bytes32",
          "name": "role",
          "type": "bytes32"
        },
        {
          "indexed": true,
          "internalType": "address",
          "name": "account",
          "type": "address"
        },
        {
          "indexed": true,
          "internalType": "address",
          "name": "sender",
          "type": "address"
        }
      ],
      "name": "RoleRevoked",
      "type": "event"
    },
    {
      "anonymous": false,
      "inputs": [
        {
          "indexed": true,
          "internalType": "address",
          "name": "implementation",
          "type": "address"
        }
      ],
      "name": "Upgraded",
      "type": "event"
    },
    {
      "inputs": [],
      "name": "CONTROLLER_ROLE",
      "outputs": [
        {
          "internalType": "bytes32",
          "name": "",
          "type": "bytes32"
        }
      ],
      "stateMutability": "view",
      "type": "function"
    },
    {
      "inputs": [],
      "name": "DEFAULT_ADMIN_ROLE",
      "outputs": [
        {
          "internalType": "bytes32",
          "name": "",
          "type": "bytes32"
        }
      ],
      "stateMutability": "view",
      "type": "function"
    },
    {
      "inputs": [],
      "name": "UPGRADE_INTERFACE_VERSION",
      "outputs": [
        {
          "internalType": "string",
          "name": "",
          "type": "string"
        }
      ],
      "stateMutability": "view",
      "type": "function"
    },
    {
      "inputs": [
        {
          "internalType": "address",
          "name": "admin",
          "type": "address"
        },
        {
          "internalType": "address",
          "name": "eqTokenAddr",
          "type": "address"
        },
        {
          "internalType": "address",
          "name": "stakeBookAddr",
          "type": "address"
        }
      ],
      "name": "__VaultRelayer_init",
      "outputs": [],
      "stateMutability": "nonpayable",
      "type": "function"
    },
    {
      "inputs": [
        {
          "internalType": "address",
          "name": "userAddr",
          "type": "address"
        },
        {
          "internalType": "address",
          "name": "vaultAddr",
          "type": "address"
        },
        {
          "internalType": "string",
          "name": "stakeName",
          "type": "string"
        },
        {
          "internalType": "uint256",
          "name": "amount",
          "type": "uint256"
        }
      ],
      "name": "deposit",
      "outputs": [],
      "stateMutability": "nonpayable",
      "type": "function"
    },
    {
      "inputs": [
        {
          "internalType": "bytes32",
          "name": "role",
          "type": "bytes32"
        }
      ],
      "name": "getRoleAdmin",
      "outputs": [
        {
          "internalType": "bytes32",
          "name": "",
          "type": "bytes32"
        }
      ],
      "stateMutability": "view",
      "type": "function"
    },
    {
      "inputs": [
        {
          "internalType": "bytes32",
          "name": "role",
          "type": "bytes32"
        },
        {
          "internalType": "address",
          "name": "account",
          "type": "address"
        }
      ],
      "name": "grantRole",
      "outputs": [],
      "stateMutability": "nonpayable",
      "type": "function"
    },
    {
      "inputs": [
        {
          "internalType": "bytes32",
          "name": "role",
          "type": "bytes32"
        },
        {
          "internalType": "address",
          "name": "account",
          "type": "address"
        }
      ],
      "name": "hasRole",
      "outputs": [
        {
          "internalType": "bool",
          "name": "",
          "type": "bool"
        }
      ],
      "stateMutability": "view",
      "type": "function"
    },
    {
      "inputs": [],
      "name": "proxiableUUID",
      "outputs": [
        {
          "internalType": "bytes32",
          "name": "",
          "type": "bytes32"
        }
      ],
      "stateMutability": "view",
      "type": "function"
    },
    {
      "inputs": [
        {
          "internalType": "bytes32",
          "name": "role",
          "type": "bytes32"
        },
        {
          "internalType": "address",
          "name": "callerConfirmation",
          "type": "address"
        }
      ],
      "name": "renounceRole",
      "outputs": [],
      "stateMutability": "nonpayable",
      "type": "function"
    },
    {
      "inputs": [
        {
          "internalType": "bytes32",
          "name": "role",
          "type": "bytes32"
        },
        {
          "internalType": "address",
          "name": "account",
          "type": "address"
        }
      ],
      "name": "revokeRole",
      "outputs": [],
      "stateMutability": "nonpayable",
      "type": "function"
    },
    {
      "inputs": [
        {
          "internalType": "address",
          "name": "vaultAddr",
          "type": "address"
        },
        {
          "internalType": "address",
          "name": "moduleAddr",
          "type": "address"
        }
      ],
      "name": "signUpVault",
      "outputs": [],
      "stateMutability": "nonpayable",
      "type": "function"
    },
    {
      "inputs": [
        {
          "internalType": "bytes4",
          "name": "interfaceId",
          "type": "bytes4"
        }
      ],
      "name": "supportsInterface",
      "outputs": [
        {
          "internalType": "bool",
          "name": "",
          "type": "bool"
        }
      ],
      "stateMutability": "view",
      "type": "function"
    },
    {
      "inputs": [
        {
          "internalType": "address",
          "name": "newImplementation",
          "type": "address"
        },
        {
          "internalType": "bytes",
          "name": "data",
          "type": "bytes"
        }
      ],
      "name": "upgradeToAndCall",
      "outputs": [],
      "stateMutability": "payable",
      "type": "function"
    }
  ],
  "bytecode": "0x60a0806040523461002a5730608052610fb3908161003082396080518181816107c101526108a20152f35b600080fdfe608060408181526004908136101561001657600080fd5b600092833560e01c90816301ffc9a714610b6b57508063092c5b3b14610b30578063248a9ca314610af85780632f2ff15d14610ad057806336568abe14610a895780634f1ef2861461082857806352d1902d146107ac57806391d1485414610758578063a217fddf14610739578063ad3cb1cc1461069a578063c205f986146104df578063d16297d114610264578063d1c0673b1461010c5763d547741f146100be57600080fd5b3461010857806003193601126101085761010491356100ff60016100e0610bd8565b93838752600080516020610f5e83398151915260205286200154610cd6565b610e36565b5080f35b8280fd5b5034610108578060031936011261010857610125610bf3565b908361012f610bd8565b93610138610c7e565b6001600160a01b039384168083527f8e78852b91ce73f8b26c9934357f7fc0344681554f3f56553dbda3f915d75700602052838320805460ff191660011790557f8e78852b91ce73f8b26c9934357f7fc0344681554f3f56553dbda3f915d7570154909590851694853b15610260576044849286519586938492632f2ff15d60e01b84527f7b765e0e932d348852a6f810bfa1ab891e259123f02db8cdcde614c5702233578885015216988960248401525af1801561025657610225575b50507f4241302c393c713e690702c4a45a57e93cef59aa8c6e2358495853b3420551d89160209151908152a280f35b67ffffffffffffffff829693961161024357508452928160206101f6565b634e487b7160e01b835260419052602482fd5b83513d88823e3d90fd5b8380fd5b5090346101085760803660031901126101085761027f610bf3565b91610288610bd8565b926044359167ffffffffffffffff918284116104db57366023850112156104db57838501359283116104db5760248085019481853692010111610413576064359060018060a01b0380981697888a526020937f8e78852b91ce73f8b26c9934357f7fc0344681554f3f56553dbda3f915d75700855260ff868c205416156104a657878588847f8e78852b91ce73f8b26c9934357f7fc0344681554f3f56553dbda3f915d757025416828d6103548c5196879586948594630a6c32dd60e11b86528501528b840191610c5d565b03915afa90811561049c579083918d9161045e575b5016801561042c578592918c6064928d8a5197889687956323b872dd60e01b8752169e8f908601528401528760448401525af18015610422576103e7575b506103dd7f2dc24880b34b2026fb1cd0231e65ef42ca1c78e4efdd9711b7629740206bfa46958451958587968752860191610c5d565b918301520390a380f35b8281813d831161041b575b6103fc8183610c09565b8101031261041757518015150361041357386103a7565b8780fd5b8880fd5b503d6103f2565b84513d8b823e3d90fd5b865162461bcd60e51b8152808b01879052600d818601526c696e76616c6964207374616b6560981b6044820152606490fd5b809250878092503d8311610495575b6104778183610c09565b810103126104915751828116810361049157829038610369565b8b80fd5b503d61046d565b87513d8e823e3d90fd5b855162461bcd60e51b8152808a018690526010818501526f1d985d5b1d081a5cc81a5b9d985b1a5960821b6044820152606490fd5b8680fd5b509034610108576060366003190112610108576104fa610bf3565b90610503610bd8565b6001600160a01b039060443582811691908290036104db577ff0c57e16840df040f15088dc2f81fe391c3923bec73e23a9662efc9c229c6a0094855460ff81891c16159567ffffffffffffffff821680159081610692575b6001149081610688575b15908161067f575b50610671575067ffffffffffffffff19811660011787556105a5919086610652575b50610598610eb9565b6105a0610eb9565b610d09565b506bffffffffffffffffffffffff60a01b927f8e78852b91ce73f8b26c9934357f7fc0344681554f3f56553dbda3f915d757019116838254161790557f8e78852b91ce73f8b26c9934357f7fc0344681554f3f56553dbda3f915d7570291825416179055610611578280f35b805468ff00000000000000001916905551600181527fc7f505b2f371ae2175ee4913f4499e1f2633a7b5936321eed1cdaeb6115181d290602090a138808280f35b68ffffffffffffffffff1916680100000000000000011787553861058f565b885163f92ee8a960e01b8152fd5b9050153861056d565b303b159150610565565b88915061055b565b5090346101085782600319360112610108578151908282019082821067ffffffffffffffff8311176107265750825260058152602090640352e302e360dc1b6020820152825193849260208452825192836020860152825b84811061071057505050828201840152601f01601f19168101030190f35b81810183015188820188015287955082016106f2565b634e487b7160e01b855260419052602484fd5b83823461075457816003193601126107545751908152602090f35b5080fd5b5090346101085781600319360112610108578160209360ff92610779610bd8565b90358252600080516020610f5e83398151915286528282206001600160a01b039091168252855220549151911615158152f35b508234610825578060031936011261082557507f00000000000000000000000000000000000000000000000000000000000000006001600160a01b0316300361081857602090517f360894a13ba1a3210667c828492db98dca3e2076cc3735a920a3ca505d382bbc8152f35b5163703e46dd60e11b8152fd5b80fd5b50806003193601126101085761083c610bf3565b90602493843567ffffffffffffffff81116107545736602382011215610754578085013561086981610c41565b9461087685519687610c09565b81865260209182870193368a8383010111610a85578186928b8693018737880101526001600160a01b037f00000000000000000000000000000000000000000000000000000000000000008116308114908115610a57575b50610a47576108db610c7e565b81169585516352d1902d60e01b815283818a818b5afa869181610a18575b50610915575050505050505191634c9c8ce360e01b8352820152fd5b9088888894938c7f360894a13ba1a3210667c828492db98dca3e2076cc3735a920a3ca505d382bbc91828103610a035750853b156109ef575080546001600160a01b031916821790558451889392917fbc7cd75a20ee27fd9adebab32041f755214dbc6bffa90cc0225b39da2e5c2d3b8580a28251156109d15750506101049582915190845af4913d156109c7573d6109b96109b082610c41565b92519283610c09565b81528581943d92013e610efa565b5060609250610efa565b9550955050505050346109e357505080f35b63b398979f60e01b8152fd5b8651634c9c8ce360e01b8152808501849052fd5b8751632a87526960e21b815280860191909152fd5b9091508481813d8311610a40575b610a308183610c09565b810103126104db575190386108f9565b503d610a26565b855163703e46dd60e11b81528890fd5b9050817f360894a13ba1a3210667c828492db98dca3e2076cc3735a920a3ca505d382bbc54161415386108ce565b8580fd5b50829034610754578060031936011261075457610aa4610bd8565b90336001600160a01b03831603610ac15750610104919235610e36565b5163334bd91960e11b81528390fd5b50346101085780600319360112610108576101049135610af360016100e0610bd8565b610da9565b5090346101085760203660031901126101085781602093600192358152600080516020610f5e83398151915285522001549051908152f35b838234610754578160031936011261075457602090517f7b765e0e932d348852a6f810bfa1ab891e259123f02db8cdcde614c5702233578152f35b84908434610108576020366003190112610108573563ffffffff60e01b811680910361010857602092506251787560e11b8114908115610bad575b5015158152f35b637965db0b60e01b811491508115610bc7575b5083610ba6565b6301ffc9a760e01b14905083610bc0565b602435906001600160a01b0382168203610bee57565b600080fd5b600435906001600160a01b0382168203610bee57565b90601f8019910116810190811067ffffffffffffffff821117610c2b57604052565b634e487b7160e01b600052604160045260246000fd5b67ffffffffffffffff8111610c2b57601f01601f191660200190565b908060209392818452848401376000828201840152601f01601f1916010190565b3360009081527fb7db2dd08fcb62d0c9e08c51941cae53c267786a0b75803fb7960902fc8ef97d602052604081205460ff1615610cb85750565b6044906040519063e2517d3f60e01b82523360048301526024820152fd5b80600052600080516020610f5e83398151915260205260406000203360005260205260ff6040600020541615610cb85750565b6001600160a01b031660008181527fb7db2dd08fcb62d0c9e08c51941cae53c267786a0b75803fb7960902fc8ef97d6020526040812054909190600080516020610f5e8339815191529060ff16610da4578280526020526040822081835260205260408220600160ff1982541617905533917f2f8788117e7eff1d82e926ec794901d17c78024a50270940304540a733656f0d8180a4600190565b505090565b90600091808352600080516020610f5e83398151915280602052604084209260018060a01b03169283855260205260ff60408520541615600014610e30578184526020526040832082845260205260408320600160ff198254161790557f2f8788117e7eff1d82e926ec794901d17c78024a50270940304540a733656f0d339380a4600190565b50505090565b90600091808352600080516020610f5e83398151915280602052604084209260018060a01b03169283855260205260ff604085205416600014610e3057818452602052604083208284526020526040832060ff1981541690557ff6391f5c32d9c69d2a47ea670b442974b53935d1edc7fd64eb21e047a839171b339380a4600190565b60ff7ff0c57e16840df040f15088dc2f81fe391c3923bec73e23a9662efc9c229c6a005460401c1615610ee857565b604051631afcd79f60e31b8152600490fd5b90610f215750805115610f0f57602081519101fd5b60405163d6bda27560e01b8152600490fd5b81511580610f54575b610f32575090565b604051639996b31560e01b81526001600160a01b039091166004820152602490fd5b50803b15610f2a56fe02dd7bc7dec4dceedda775e58dd541e08a116c6c53815c0bd028192f7b626800a264697066735822122059a71b416e3485cc0dfd11f115fd8a508937335a5c073f233beeca57d8c6963964736f6c63430008180033",
  "linkReferences": {},
  "deployedLinkReferences": {}
}